{"abi":[{"type":"constructor","inputs":[],"stateMutability":"nonpayable"},{"type":"function","name":"UPGRADE_INTERFACE_VERSION","inputs":[],"outputs":[{"name":"","type":"string","internalType":"string"}],"stateMutability":"view"},{"type":"function","name":"addInternalAccounts","inputs":[{"name":"accounts","type":"address[]","internalType":"address[]"}],"outputs":[],"stateMutability":"nonpayable"},{"type":"function","name":"addressToReferralCode","inputs":[{"name":"","type":"address","internalType":"address"}],"outputs":[{"name":"","type":"string","internalType":"string"}],"stateMutability":"view"},{"type":"function","name":"ethUsdPriceFeed","inputs":[],"outputs":[{"name":"","type":"address","internalType":"contract AggregatorV3Interface"}],"stateMutability":"view"},{"type":"function","name":"generateReferralCode","inputs":[{"name":"referralCode","type":"string","internalType":"string"}],"outputs":[],"stateMutability":"nonpayable"},{"type":"function","name":"getContractVersion","inputs":[],"outputs":[{"name":"","type":"string","internalType":"string"}],"stateMutability":"pure"},{"type":"function","name":"getLatestEthPriceInUsd","inputs":[],"outputs":[{"name":"","type":"int256","internalType":"int256"}],"stateMutability":"view"},{"type":"function","name":"getUsdPriceInEth","inputs":[],"outputs":[{"name":"","type":"uint256","internalType":"uint256"}],"stateMutability":"view"},{"type":"function","name":"initialize","inputs":[{"name":"_ethUsdPriceFeed","type":"address","internalType":"address"},{"name":"_usdtContractAddress","type":"address","internalType":"address"},{"name":"_usdcContractAddress","type":"address","internalType":"address"},{"name":"_referredCommisionPercentage","type":"uint256","internalType":"uint256"},{"name":"_referrerCommissionPercentage","type":"uint256","internalType":"uint256"},{"name":"_perUserCap","type":"uint256","internalType":"uint256"},{"name":"_internalWalletMaxHoldings","type":"uint256","internalType":"uint256"}],"outputs":[],"stateMutability":"nonpayable"},{"type":"function","name":"internalAccounts","inputs":[{"name":"","type":"address","internalType":"address"}],"outputs":[{"name":"","type":"bool","internalType":"bool"}],"stateMutability":"view"},{"type":"function","name":"internalWalletMaxHoldings","inputs":[],"outputs":[{"name":"","type":"uint256","internalType":"uint256"}],"stateMutability":"view"},{"type":"function","name":"isActiveReferral","inputs":[{"name":"","type":"string","internalType":"string"}],"outputs":[{"name":"","type":"bool","internalType":"bool"}],"stateMutability":"view"},{"type":"function","name":"isAdmin","inputs":[{"name":"","type":"address","internalType":"address"}],"outputs":[{"name":"","type":"bool","internalType":"bool"}],"stateMutability":"view"},{"type":"function","name":"isBlackListed","inputs":[{"name":"","type":"address","internalType":"address"}],"outputs":[{"name":"","type":"bool","internalType":"bool"}],"stateMutability":"view"},{"type":"function","name":"isContract","inputs":[{"name":"_addr","type":"address","internalType":"address"}],"outputs":[{"name":"","type":"bool","internalType":"bool"}],"stateMutability":"view"},{"type":"function","name":"isKYC","inputs":[{"name":"","type":"address","internalType":"address"}],"outputs":[{"name":"","type":"bool","internalType":"bool"}],"stateMutability":"view"},{"type":"function","name":"perUserCap","inputs":[],"outputs":[{"name":"","type":"uint256","internalType":"uint256"}],"stateMutability":"view"},{"type":"function","name":"proxiableUUID","inputs":[],"outputs":[{"name":"","type":"bytes32","internalType":"bytes32"}],"stateMutability":"view"},{"type":"function","name":"referralCodeToAddress","inputs":[{"name":"","type":"string","internalType":"string"}],"outputs":[{"name":"","type":"address","internalType":"address"}],"stateMutability":"view"},{"type":"function","name":"referredCommissionPercentage","inputs":[],"outputs":[{"name":"","type":"uint256","internalType":"uint256"}],"stateMutability":"view"},{"type":"function","name":"referrerCommissionPercentage","inputs":[],"outputs":[{"name":"","type":"uint256","internalType":"uint256"}],"stateMutability":"view"},{"type":"function","name":"removeInternalAccounts","inputs":[{"name":"accounts","type":"address[]","internalType":"address[]"}],"outputs":[],"stateMutability":"nonpayable"},{"type":"function","name":"removeWhitelistedContract","inputs":[{"name":"contractAddresses","type":"address[]","internalType":"address[]"}],"outputs":[],"stateMutability":"nonpayable"},{"type":"function","name":"superAdmin","inputs":[],"outputs":[{"name":"","type":"address","internalType":"address"}],"stateMutability":"view"},{"type":"function","name":"supportedTokens","inputs":[{"name":"","type":"address","internalType":"address"}],"outputs":[{"name":"","type":"bool","internalType":"bool"}],"stateMutability":"view"},{"type":"function","name":"test","inputs":[],"outputs":[{"name":"","type":"uint256","internalType":"uint256"}],"stateMutability":"view"},{"type":"function","name":"transferSuperAdmin","inputs":[{"name":"newSuperAdmin","type":"address","internalType":"address"}],"outputs":[],"stateMutability":"nonpayable"},{"type":"function","name":"updateAdminRole","inputs":[{"name":"admin","type":"address","internalType":"address"},{"name":"status","type":"bool","internalType":"bool"}],"outputs":[],"stateMutability":"nonpayable"},{"type":"function","name":"updateBlackListUser","inputs":[{"name":"userAddress","type":"address","internalType":"address"},{"name":"status","type":"bool","internalType":"bool"}],"outputs":[],"stateMutability":"nonpayable"},{"type":"function","name":"updateHoldings","inputs":[{"name":"user","type":"address","internalType":"address"},{"name":"quantity","type":"uint256","internalType":"uint256"}],"outputs":[],"stateMutability":"nonpayable"},{"type":"function","name":"updateInternalWalletMaxHoldings","inputs":[{"name":"newLimit","type":"uint256","internalType":"uint256"}],"outputs":[],"stateMutability":"nonpayable"},{"type":"function","name":"updateKYCStatus","inputs":[{"name":"userAddress","type":"address","internalType":"address"},{"name":"status","type":"bool","internalType":"bool"}],"outputs":[],"stateMutability":"nonpayable"},{"type":"function","name":"updateReferredCommissionPercentage","inputs":[{"name":"newReferredCommissionPercentage","type":"uint256","internalType":"uint256"}],"outputs":[],"stateMutability":"nonpayable"},{"type":"function","name":"updateReferrerCommisionPercentage","inputs":[{"name":"newReferrerCommisionPercentage","type":"uint256","internalType":"uint256"}],"outputs":[],"stateMutability":"nonpayable"},{"type":"function","name":"updateTest","inputs":[{"name":"newTest","type":"uint256","internalType":"uint256"}],"outputs":[],"stateMutability":"nonpayable"},{"type":"function","name":"updateUserReferralActiveness","inputs":[{"name":"referralCode","type":"string","internalType":"string"},{"name":"isActive","type":"bool","internalType":"bool"}],"outputs":[],"stateMutability":"nonpayable"},{"type":"function","name":"upgradeToAndCall","inputs":[{"name":"newImplementation","type":"address","internalType":"address"},{"name":"data","type":"bytes","internalType":"bytes"}],"outputs":[],"stateMutability":"payable"},{"type":"function","name":"userHoldings","inputs":[{"name":"","type":"address","internalType":"address"}],"outputs":[{"name":"","type":"uint256","internalType":"uint256"}],"stateMutability":"view"},{"type":"function","name":"whitelistContract","inputs":[{"name":"contractAddresses","type":"address[]","internalType":"address[]"}],"outputs":[],"stateMutability":"nonpayable"},{"type":"function","name":"whitelistedTierContracts","inputs":[{"name":"","type":"address","internalType":"address"}],"outputs":[{"name":"","type":"bool","internalType":"bool"}],"stateMutability":"view"},{"type":"event","name":"AdminUpdated","inputs":[{"name":"admin","type":"address","indexed":true,"internalType":"address"},{"name":"isAdmin","type":"bool","indexed":false,"internalType":"bool"}],"anonymous":false},{"type":"event","name":"ContractRemovedFromWhitelist","inputs":[{"name":"contractAddress","type":"address","indexed":true,"internalType":"address"}],"anonymous":false},{"type":"event","name":"ContractWhitelisted","inputs":[{"name":"contractAddress","type":"address","indexed":true,"internalType":"address"}],"anonymous":false},{"type":"event","name":"Initialized","inputs":[{"name":"version","type":"uint64","indexed":false,"internalType":"uint64"}],"anonymous":false},{"type":"event","name":"InternalAccountsUpdate","inputs":[{"name":"account","type":"address","indexed":true,"internalType":"address"},{"name":"status","type":"bool","indexed":false,"internalType":"bool"}],"anonymous":false},{"type":"event","name":"ReferralCodeActivenessUpdated","inputs":[{"name":"referralCode","type":"string","indexed":false,"internalType":"string"},{"name":"isActive","type":"bool","indexed":false,"internalType":"bool"}],"anonymous":false},{"type":"event","name":"ReferralCodeGenerated","inputs":[{"name":"user","type":"address","indexed":true,"internalType":"address"},{"name":"referralCode","type":"string","indexed":false,"internalType":"string"}],"anonymous":false},{"type":"event","name":"ReferredCommissionPercentageUpdated","inputs":[{"name":"newReferredCommissionPercentage","type":"uint256","indexed":false,"internalType":"uint256"}],"anonymous":false},{"type":"event","name":"ReferrerCommisionPercentageUpdated","inputs":[{"name":"newReferrerCommisionPercentage","type":"uint256","indexed":false,"internalType":"uint256"}],"anonymous":false},{"type":"event","name":"SuperAdminUpdated","inputs":[{"name":"newSuperAdmin","type":"address","indexed":true,"internalType":"address"},{"name":"oldSuperAdmin","type":"address","indexed":true,"internalType":"address"}],"anonymous":false},{"type":"event","name":"Upgraded","inputs":[{"name":"implementation","type":"address","indexed":true,"internalType":"address"}],"anonymous":false},{"type":"event","name":"UserBlacklistedStatusUpdate","inputs":[{"name":"user","type":"address","indexed":true,"internalType":"address"},{"name":"status","type":"bool","indexed":false,"internalType":"bool"}],"anonymous":false},{"type":"event","name":"UserKYCStatusUpdate","inputs":[{"name":"user","type":"address","indexed":true,"internalType":"address"},{"name":"status","type":"bool","indexed":false,"internalType":"bool"}],"anonymous":false},{"type":"error","name":"AddressEmptyCode","inputs":[{"name":"target","type":"address","internalType":"address"}]},{"type":"error","name":"ERC1967InvalidImplementation","inputs":[{"name":"implementation","type":"address","internalType":"address"}]},{"type":"error","name":"ERC1967NonPayable","inputs":[]},{"type":"error","name":"FailedCall","inputs":[]},{"type":"error","name":"InvalidInitialization","inputs":[]},{"type":"error","name":"NotInitializing","inputs":[]},{"type":"error","name":"UUPSUnauthorizedCallContext","inputs":[]},{"type":"error","name":"UUPSUnsupportedProxiableUUID","inputs":[{"name":"slot","type":"bytes32","internalType":"bytes32"}]}],"bytecode":{"object":"0x60a06040523073ffffffffffffffffffffffffffffffffffffffff1660809073ffffffffffffffffffffffffffffffffffffffff16815250348015610042575f5ffd5b5061005161005660201b60201c565b6101d1565b5f61006561015460201b60201c565b9050805f0160089054906101000a900460ff16156100af576040517ff92ee8a900000000000000000000000000000000000000000000000000000000815260040160405180910390fd5b67ffffffffffffffff8016815f015f9054906101000a900467ffffffffffffffff1667ffffffffffffffff16146101515767ffffffffffffffff815f015f6101000a81548167ffffffffffffffff021916908367ffffffffffffffff1602179055507fc7f505b2f371ae2175ee4913f4499e1f2633a7b5936321eed1cdaeb6115181d267ffffffffffffffff60405161014891906101b8565b60405180910390a15b50565b5f5f61016461016d60201b60201c565b90508091505090565b5f7ff0c57e16840df040f15088dc2f81fe391c3923bec73e23a9662efc9c229c6a005f1b905090565b5f67ffffffffffffffff82169050919050565b6101b281610196565b82525050565b5f6020820190506101cb5f8301846101a9565b92915050565b6080516145d56101f75f395f81816129c301528181612a180152612c5901526145d55ff3fe60806040526004361061023a575f3560e01c806368c4ac261161012d578063adff9270116100aa578063e789e6951161006e578063e789e6951461089c578063ea54ff0e146108c4578063f84d7802146108ec578063f8a8fd6d14610914578063fd2bd06a1461093e5761023a565b8063adff927014610798578063b868e7a1146107c0578063c2537372146107fc578063d6f9237214610824578063e47d6060146108605761023a565b80638aa10435116100f15780638aa10435146106b65780639944f518146106e05780639e7de2b11461071c578063a720b8af14610746578063ad3cb1cc1461076e5761023a565b806368c4ac261461059e5780637842a46b146105da578063808d180b1461061657806384fc6de314610652578063874034041461068e5761023a565b80632fe716f3116101bb5780634f1ef2861161017f5780634f1ef286146104ca57806352328b6f146104e657806352d1902d1461052257806353df9d761461054c5780635dbb2c3c146105745761023a565b80632fe716f3146104005780633f463129146104285780633ffa28ec14610450578063409c49d81461047857806342f6fb29146104a05761023a565b80631d18f00b116102025780631d18f00b1461031e57806320ce3e271461034857806324d7806c1461037257806329575f6a146103ae5780632b4656c8146103d85761023a565b8063053f424d1461023e5780630c6dd9fd1461026857806311aa69c31461029057806316279055146102b85780631c8c8f04146102f4575b5f5ffd5b348015610249575f5ffd5b50610252610966565b60405161025f9190613121565b60405180910390f35b348015610273575f5ffd5b5061028e600480360381019061028991906131a5565b61096c565b005b34801561029b575f5ffd5b506102b660048036038101906102b191906131fa565b610b06565b005b3480156102c3575f5ffd5b506102de60048036038101906102d991906131a5565b610bd7565b6040516102eb919061323f565b60405180910390f35b3480156102ff575f5ffd5b50610308610bee565b6040516103159190613121565b60405180910390f35b348015610329575f5ffd5b50610332610c59565b60405161033f9190613121565b60405180910390f35b348015610353575f5ffd5b5061035c610c5f565b6040516103699190613121565b60405180910390f35b34801561037d575f5ffd5b50610398600480360381019061039391906131a5565b610c65565b6040516103a5919061323f565b60405180910390f35b3480156103b9575f5ffd5b506103c2610c82565b6040516103cf9190613267565b60405180910390f35b3480156103e3575f5ffd5b506103fe60048036038101906103f99190613280565b610ca7565b005b34801561040b575f5ffd5b50610426600480360381019061042191906131fa565b611111565b005b348015610433575f5ffd5b5061044e6004803603810190610449919061337e565b6111e2565b005b34801561045b575f5ffd5b506104766004803603810190610471919061337e565b6113e3565b005b348015610483575f5ffd5b5061049e6004803603810190610499919061337e565b6115a6565b005b3480156104ab575f5ffd5b506104b461176b565b6040516104c19190613424565b60405180910390f35b6104e460048036038101906104df9190613575565b61178f565b005b3480156104f1575f5ffd5b5061050c6004803603810190610507919061366d565b6117ae565b604051610519919061323f565b60405180910390f35b34801561052d575f5ffd5b506105366117e3565b60405161054391906136cc565b60405180910390f35b348015610557575f5ffd5b50610572600480360381019061056d919061370f565b611814565b005b34801561057f575f5ffd5b506105886119b8565b6040516105959190613765565b60405180910390f35b3480156105a9575f5ffd5b506105c460048036038101906105bf91906131a5565b611a54565b6040516105d1919061323f565b60405180910390f35b3480156105e5575f5ffd5b5061060060048036038101906105fb91906131a5565b611a71565b60405161060d919061323f565b60405180910390f35b348015610621575f5ffd5b5061063c600480360381019061063791906131a5565b611a8e565b604051610649919061323f565b60405180910390f35b34801561065d575f5ffd5b50610678600480360381019061067391906131a5565b611aab565b6040516106859190613121565b60405180910390f35b348015610699575f5ffd5b506106b460048036038101906106af91906131fa565b611ac0565b005b3480156106c1575f5ffd5b506106ca611aca565b6040516106d791906137de565b60405180910390f35b3480156106eb575f5ffd5b50610706600480360381019061070191906131a5565b611b07565b604051610713919061323f565b60405180910390f35b348015610727575f5ffd5b50610730611b24565b60405161073d9190613121565b60405180910390f35b348015610751575f5ffd5b5061076c600480360381019061076791906137fe565b611b2a565b005b348015610779575f5ffd5b50610782611c7f565b60405161078f91906137de565b60405180910390f35b3480156107a3575f5ffd5b506107be60048036038101906107b991906131fa565b611cb8565b005b3480156107cb575f5ffd5b506107e660048036038101906107e191906131a5565b611d52565b6040516107f391906137de565b60405180910390f35b348015610807575f5ffd5b50610822600480360381019061081d919061370f565b611ded565b005b34801561082f575f5ffd5b5061084a6004803603810190610845919061366d565b611f90565b6040516108579190613267565b60405180910390f35b34801561086b575f5ffd5b50610886600480360381019061088191906131a5565b611fd8565b604051610893919061323f565b60405180910390f35b3480156108a7575f5ffd5b506108c260048036038101906108bd919061337e565b611ff5565b005b3480156108cf575f5ffd5b506108ea60048036038101906108e5919061370f565b612236565b005b3480156108f7575f5ffd5b50610912600480360381019061090d919061366d565b6123da565b005b34801561091f575f5ffd5b506109286127f1565b6040516109359190613121565b60405180910390f35b348015610949575f5ffd5b50610964600480360381019061095f919061383c565b6127f7565b005b60075481565b60015f9054906101000a900473ffffffffffffffffffffffffffffffffffffffff1673ffffffffffffffffffffffffffffffffffffffff163373ffffffffffffffffffffffffffffffffffffffff16146109fb576040517f08c379a00000000000000000000000000000000000000000000000000000000081526004016109f290613906565b60405180910390fd5b5f73ffffffffffffffffffffffffffffffffffffffff168173ffffffffffffffffffffffffffffffffffffffff1603610a69576040517f08c379a0000000000000000000000000000000000000000000000000000000008152600401610a609061396e565b60405180910390fd5b8060015f6101000a81548173ffffffffffffffffffffffffffffffffffffffff021916908373ffffffffffffffffffffffffffffffffffffffff1602179055503373ffffffffffffffffffffffffffffffffffffffff168173ffffffffffffffffffffffffffffffffffffffff167fd0f5553fb48dccd0de81c4705fa3feaf0b9a936a294741cfb724c33b8373f0c160405160405180910390a350565b6001151560025f3373ffffffffffffffffffffffffffffffffffffffff1673ffffffffffffffffffffffffffffffffffffffff1681526020019081526020015f205f9054906101000a900460ff16151514610b96576040517f08c379a0000000000000000000000000000000000000000000000000000000008152600401610b8d906139fc565b60405180910390fd5b80600b819055507f87414516f885e9e285189238886efaa94535db7ff18f2af4ff2200d4d19e0c0381604051610bcc9190613121565b60405180910390a150565b5f5f823b90505f8163ffffffff1611915050919050565b5f5f610bf86119b8565b90505f8113610c3c576040517f08c379a0000000000000000000000000000000000000000000000000000000008152600401610c3390613a64565b60405180910390fd5b806a52b7d2dcc80cd2e4000000610c539190613adc565b91505090565b600b5481565b600f5481565b6002602052805f5260405f205f915054906101000a900460ff1681565b60015f9054906101000a900473ffffffffffffffffffffffffffffffffffffffff1681565b5f610cb06129a4565b90505f815f0160089054906101000a900460ff161590505f825f015f9054906101000a900467ffffffffffffffff1690505f5f8267ffffffffffffffff16148015610cf85750825b90505f60018367ffffffffffffffff16148015610d2b57505f3073ffffffffffffffffffffffffffffffffffffffff163b145b905081158015610d39575080155b15610d70576040517ff92ee8a900000000000000000000000000000000000000000000000000000000815260040160405180910390fd5b6001855f015f6101000a81548167ffffffffffffffff021916908367ffffffffffffffff1602179055508315610dbd576001855f0160086101000a81548160ff0219169083151502179055505b610dc56129b7565b5f73ffffffffffffffffffffffffffffffffffffffff168c73ffffffffffffffffffffffffffffffffffffffff1603610e33576040517f08c379a0000000000000000000000000000000000000000000000000000000008152600401610e2a9061396e565b60405180910390fd5b5f73ffffffffffffffffffffffffffffffffffffffff168b73ffffffffffffffffffffffffffffffffffffffff1603610ea1576040517f08c379a0000000000000000000000000000000000000000000000000000000008152600401610e989061396e565b60405180910390fd5b5f73ffffffffffffffffffffffffffffffffffffffff168a73ffffffffffffffffffffffffffffffffffffffff1603610f0f576040517f08c379a0000000000000000000000000000000000000000000000000000000008152600401610f069061396e565b60405180910390fd5b3360015f6101000a81548173ffffffffffffffffffffffffffffffffffffffff021916908373ffffffffffffffffffffffffffffffffffffffff160217905550600160025f3373ffffffffffffffffffffffffffffffffffffffff1673ffffffffffffffffffffffffffffffffffffffff1681526020019081526020015f205f6101000a81548160ff0219169083151502179055508b5f5f6101000a81548173ffffffffffffffffffffffffffffffffffffffff021916908373ffffffffffffffffffffffffffffffffffffffff1602179055506001600d5f8d73ffffffffffffffffffffffffffffffffffffffff1673ffffffffffffffffffffffffffffffffffffffff1681526020019081526020015f205f6101000a81548160ff0219169083151502179055506001600d5f8c73ffffffffffffffffffffffffffffffffffffffff1673ffffffffffffffffffffffffffffffffffffffff1681526020019081526020015f205f6101000a81548160ff02191690831515021790555088600a8190555087600b819055508660078190555085600f819055508315611103575f855f0160086101000a81548160ff0219169083151502179055507fc7f505b2f371ae2175ee4913f4499e1f2633a7b5936321eed1cdaeb6115181d260016040516110fa9190613b58565b60405180910390a15b505050505050505050505050565b6001151560025f3373ffffffffffffffffffffffffffffffffffffffff1673ffffffffffffffffffffffffffffffffffffffff1681526020019081526020015f205f9054906101000a900460ff161515146111a1576040517f08c379a0000000000000000000000000000000000000000000000000000000008152600401611198906139fc565b60405180910390fd5b80600a819055507f9b1230ccd9cd68ebe973d3bd7cfbb7a9e00af4d5421dff745769b0c2453826f8816040516111d79190613121565b60405180910390a150565b6001151560025f3373ffffffffffffffffffffffffffffffffffffffff1673ffffffffffffffffffffffffffffffffffffffff1681526020019081526020015f205f9054906101000a900460ff16151514611272576040517f08c379a0000000000000000000000000000000000000000000000000000000008152600401611269906139fc565b60405180910390fd5b5f82829050036112b7576040517f08c379a00000000000000000000000000000000000000000000000000000000081526004016112ae90613bbb565b60405180910390fd5b5f5f90505b828290508110156113de575f8383838181106112db576112da613bd9565b5b90506020020160208101906112f091906131a5565b90506112fb81610bd7565b61133a576040517f08c379a000000000000000000000000000000000000000000000000000000000815260040161133190613c50565b60405180910390fd5b6001600c5f8373ffffffffffffffffffffffffffffffffffffffff1673ffffffffffffffffffffffffffffffffffffffff1681526020019081526020015f205f6101000a81548160ff0219169083151502179055508073ffffffffffffffffffffffffffffffffffffffff167fb7269578552456138d47dc37471d94886205143f138387446eff0148047965f660405160405180910390a2508060010190506112bc565b505050565b6001151560025f3373ffffffffffffffffffffffffffffffffffffffff1673ffffffffffffffffffffffffffffffffffffffff1681526020019081526020015f205f9054906101000a900460ff16151514611473576040517f08c379a000000000000000000000000000000000000000000000000000000000815260040161146a906139fc565b60405180910390fd5b5f82829050036114b8576040517f08c379a00000000000000000000000000000000000000000000000000000000081526004016114af90613bbb565b60405180910390fd5b5f5f90505b828290508110156115a1575f8383838181106114dc576114db613bd9565b5b90506020020160208101906114f191906131a5565b90505f600e5f8373ffffffffffffffffffffffffffffffffffffffff1673ffffffffffffffffffffffffffffffffffffffff1681526020019081526020015f205f6101000a81548160ff0219169083151502179055508073ffffffffffffffffffffffffffffffffffffffff167fa41df410624cc22572f919ecd0d9c80c8722e6fabbd1055c0ae654256f0a9d065f60405161158d919061323f565b60405180910390a2508060010190506114bd565b505050565b6001151560025f3373ffffffffffffffffffffffffffffffffffffffff1673ffffffffffffffffffffffffffffffffffffffff1681526020019081526020015f205f9054906101000a900460ff16151514611636576040517f08c379a000000000000000000000000000000000000000000000000000000000815260040161162d906139fc565b60405180910390fd5b5f828290500361167b576040517f08c379a000000000000000000000000000000000000000000000000000000000815260040161167290613bbb565b60405180910390fd5b5f5f90505b82829050811015611766575f83838381811061169f5761169e613bd9565b5b90506020020160208101906116b491906131a5565b90506001600e5f8373ffffffffffffffffffffffffffffffffffffffff1673ffffffffffffffffffffffffffffffffffffffff1681526020019081526020015f205f6101000a81548160ff0219169083151502179055508073ffffffffffffffffffffffffffffffffffffffff167fa41df410624cc22572f919ecd0d9c80c8722e6fabbd1055c0ae654256f0a9d066001604051611752919061323f565b60405180910390a250806001019050611680565b505050565b5f5f9054906101000a900473ffffffffffffffffffffffffffffffffffffffff1681565b6117976129c1565b6117a082612aa7565b6117aa8282612b39565b5050565b6005818051602081018201805184825260208301602085012081835280955050505050505f915054906101000a900460ff1681565b5f6117ec612c57565b7f360894a13ba1a3210667c828492db98dca3e2076cc3735a920a3ca505d382bbc5f1b905090565b6001151560025f3373ffffffffffffffffffffffffffffffffffffffff1673ffffffffffffffffffffffffffffffffffffffff1681526020019081526020015f205f9054906101000a900460ff161515146118a4576040517f08c379a000000000000000000000000000000000000000000000000000000000815260040161189b906139fc565b60405180910390fd5b5f73ffffffffffffffffffffffffffffffffffffffff168273ffffffffffffffffffffffffffffffffffffffff1603611912576040517f08c379a00000000000000000000000000000000000000000000000000000000081526004016119099061396e565b60405180910390fd5b8060095f8473ffffffffffffffffffffffffffffffffffffffff1673ffffffffffffffffffffffffffffffffffffffff1681526020019081526020015f205f6101000a81548160ff0219169083151502179055508173ffffffffffffffffffffffffffffffffffffffff167f58ddee8483dccfd93c151ea27fe0e76dcd291cee24151f05e3b305df81c81cae826040516119ac919061323f565b60405180910390a25050565b5f5f5f5f9054906101000a900473ffffffffffffffffffffffffffffffffffffffff1673ffffffffffffffffffffffffffffffffffffffff1663feaf968c6040518163ffffffff1660e01b815260040160a060405180830381865afa158015611a23573d5f5f3e3d5ffd5b505050506040513d601f19601f82011682018060405250810190611a479190613ceb565b5050509150508091505090565b600d602052805f5260405f205f915054906101000a900460ff1681565b600c602052805f5260405f205f915054906101000a900460ff1681565b600e602052805f5260405f205f915054906101000a900460ff1681565b6006602052805f5260405f205f915090505481565b8060108190555050565b60606040518060400160405280600581526020017f302e302e32000000000000000000000000000000000000000000000000000000815250905090565b6009602052805f5260405f205f915054906101000a900460ff1681565b600a5481565b60011515600c5f3373ffffffffffffffffffffffffffffffffffffffff1673ffffffffffffffffffffffffffffffffffffffff1681526020019081526020015f205f9054906101000a900460ff16151514611bba576040517f08c379a0000000000000000000000000000000000000000000000000000000008152600401611bb190613dd2565b60405180910390fd5b5f73ffffffffffffffffffffffffffffffffffffffff168273ffffffffffffffffffffffffffffffffffffffff1603611c28576040517f08c379a0000000000000000000000000000000000000000000000000000000008152600401611c1f9061396e565b60405180910390fd5b8060065f8473ffffffffffffffffffffffffffffffffffffffff1673ffffffffffffffffffffffffffffffffffffffff1681526020019081526020015f205f828254611c749190613df0565b925050819055505050565b6040518060400160405280600581526020017f352e302e3000000000000000000000000000000000000000000000000000000081525081565b6001151560025f3373ffffffffffffffffffffffffffffffffffffffff1673ffffffffffffffffffffffffffffffffffffffff1681526020019081526020015f205f9054906101000a900460ff16151514611d48576040517f08c379a0000000000000000000000000000000000000000000000000000000008152600401611d3f906139fc565b60405180910390fd5b80600f8190555050565b6004602052805f5260405f205f915090508054611d6e90613e50565b80601f0160208091040260200160405190810160405280929190818152602001828054611d9a90613e50565b8015611de55780601f10611dbc57610100808354040283529160200191611de5565b820191905f5260205f20905b815481529060010190602001808311611dc857829003601f168201915b505050505081565b60015f9054906101000a900473ffffffffffffffffffffffffffffffffffffffff1673ffffffffffffffffffffffffffffffffffffffff163373ffffffffffffffffffffffffffffffffffffffff1614611e7c576040517f08c379a0000000000000000000000000000000000000000000000000000000008152600401611e7390613906565b60405180910390fd5b5f73ffffffffffffffffffffffffffffffffffffffff168273ffffffffffffffffffffffffffffffffffffffff1603611eea576040517f08c379a0000000000000000000000000000000000000000000000000000000008152600401611ee19061396e565b60405180910390fd5b8060025f8473ffffffffffffffffffffffffffffffffffffffff1673ffffffffffffffffffffffffffffffffffffffff1681526020019081526020015f205f6101000a81548160ff0219169083151502179055508173ffffffffffffffffffffffffffffffffffffffff167f235bc17e7930760029e9f4d860a2a8089976de5b381cf8380fc11c1d88a1113382604051611f84919061323f565b60405180910390a25050565b6003818051602081018201805184825260208301602085012081835280955050505050505f915054906101000a900473ffffffffffffffffffffffffffffffffffffffff1681565b6008602052805f5260405f205f915054906101000a900460ff1681565b6001151560025f3373ffffffffffffffffffffffffffffffffffffffff1673ffffffffffffffffffffffffffffffffffffffff1681526020019081526020015f205f9054906101000a900460ff16151514612085576040517f08c379a000000000000000000000000000000000000000000000000000000000815260040161207c906139fc565b60405180910390fd5b5f82829050036120ca576040517f08c379a00000000000000000000000000000000000000000000000000000000081526004016120c190613bbb565b60405180910390fd5b5f5f90505b82829050811015612231575f8383838181106120ee576120ed613bd9565b5b905060200201602081019061210391906131a5565b9050600c5f8273ffffffffffffffffffffffffffffffffffffffff1673ffffffffffffffffffffffffffffffffffffffff1681526020019081526020015f205f9054906101000a900460ff1661218e576040517f08c379a000000000000000000000000000000000000000000000000000000000815260040161218590613eca565b60405180910390fd5b5f600c5f8373ffffffffffffffffffffffffffffffffffffffff1673ffffffffffffffffffffffffffffffffffffffff1681526020019081526020015f205f6101000a81548160ff0219169083151502179055508073ffffffffffffffffffffffffffffffffffffffff167ffb8b462bd4e3db069eb434596fcfb88044cfe688f7329d1c4bdfbb113257b1ac60405160405180910390a2508060010190506120cf565b505050565b6001151560025f3373ffffffffffffffffffffffffffffffffffffffff1673ffffffffffffffffffffffffffffffffffffffff1681526020019081526020015f205f9054906101000a900460ff161515146122c6576040517f08c379a00000000000000000000000000000000000000000000000000000000081526004016122bd906139fc565b60405180910390fd5b5f73ffffffffffffffffffffffffffffffffffffffff168273ffffffffffffffffffffffffffffffffffffffff1603612334576040517f08c379a000000000000000000000000000000000000000000000000000000000815260040161232b9061396e565b60405180910390fd5b8060085f8473ffffffffffffffffffffffffffffffffffffffff1673ffffffffffffffffffffffffffffffffffffffff1681526020019081526020015f205f6101000a81548160ff0219169083151502179055508173ffffffffffffffffffffffffffffffffffffffff167f8f7c4738b5c49406f13677340f47da6778e0fbc9f2ed993f0c1ef04f995d9403826040516123ce919061323f565b60405180910390a25050565b60068151101580156123ee5750600a815111155b61242d576040517f08c379a000000000000000000000000000000000000000000000000000000000815260040161242490613f32565b60405180910390fd5b61243681612cde565b612475576040517f08c379a000000000000000000000000000000000000000000000000000000000815260040161246c90613fc0565b60405180910390fd5b5f73ffffffffffffffffffffffffffffffffffffffff1660038260405161249c9190614018565b90815260200160405180910390205f9054906101000a900473ffffffffffffffffffffffffffffffffffffffff1673ffffffffffffffffffffffffffffffffffffffff1614612520576040517f08c379a000000000000000000000000000000000000000000000000000000000815260040161251790614078565b60405180910390fd5b5f60045f3373ffffffffffffffffffffffffffffffffffffffff1673ffffffffffffffffffffffffffffffffffffffff1681526020019081526020015f20805461256990613e50565b9050146125ab576040517f08c379a00000000000000000000000000000000000000000000000000000000081526004016125a290614106565b60405180910390fd5b5f151560085f3373ffffffffffffffffffffffffffffffffffffffff1673ffffffffffffffffffffffffffffffffffffffff1681526020019081526020015f205f9054906101000a900460ff1615151461263a576040517f08c379a00000000000000000000000000000000000000000000000000000000081526004016126319061416e565b60405180910390fd5b60095f3373ffffffffffffffffffffffffffffffffffffffff1673ffffffffffffffffffffffffffffffffffffffff1681526020019081526020015f205f9054906101000a900460ff166126c3576040517f08c379a00000000000000000000000000000000000000000000000000000000081526004016126ba906141d6565b60405180910390fd5b336003826040516126d49190614018565b90815260200160405180910390205f6101000a81548173ffffffffffffffffffffffffffffffffffffffff021916908373ffffffffffffffffffffffffffffffffffffffff1602179055508060045f3373ffffffffffffffffffffffffffffffffffffffff1673ffffffffffffffffffffffffffffffffffffffff1681526020019081526020015f209081612769919061438b565b50600160058260405161277c9190614018565b90815260200160405180910390205f6101000a81548160ff0219169083151502179055503373ffffffffffffffffffffffffffffffffffffffff167f86d606287c9d4f3a350b0e6ea78a04d97425fff091713f4a433942578dc6f161826040516127e691906137de565b60405180910390a250565b60105481565b6001151560025f3373ffffffffffffffffffffffffffffffffffffffff1673ffffffffffffffffffffffffffffffffffffffff1681526020019081526020015f205f9054906101000a900460ff16151514612887576040517f08c379a000000000000000000000000000000000000000000000000000000000815260040161287e906139fc565b60405180910390fd5b5f73ffffffffffffffffffffffffffffffffffffffff166003836040516128ae9190614018565b90815260200160405180910390205f9054906101000a900473ffffffffffffffffffffffffffffffffffffffff1673ffffffffffffffffffffffffffffffffffffffff1603612932576040517f08c379a0000000000000000000000000000000000000000000000000000000008152600401612929906144a4565b60405180910390fd5b806005836040516129439190614018565b90815260200160405180910390205f6101000a81548160ff0219169083151502179055507f63bac90b9b3df6d7b737f7046d67a6731e531359f669a85f837fb9db826a9ddc82826040516129989291906144c2565b60405180910390a15050565b5f5f6129ae612d5e565b90508091505090565b6129bf612d87565b565b7f000000000000000000000000000000000000000000000000000000000000000073ffffffffffffffffffffffffffffffffffffffff163073ffffffffffffffffffffffffffffffffffffffff161480612a6e57507f000000000000000000000000000000000000000000000000000000000000000073ffffffffffffffffffffffffffffffffffffffff16612a55612dc7565b73ffffffffffffffffffffffffffffffffffffffff1614155b15612aa5576040517fe07c8dba00000000000000000000000000000000000000000000000000000000815260040160405180910390fd5b565b60015f9054906101000a900473ffffffffffffffffffffffffffffffffffffffff1673ffffffffffffffffffffffffffffffffffffffff163373ffffffffffffffffffffffffffffffffffffffff1614612b36576040517f08c379a0000000000000000000000000000000000000000000000000000000008152600401612b2d90613906565b60405180910390fd5b50565b8173ffffffffffffffffffffffffffffffffffffffff166352d1902d6040518163ffffffff1660e01b8152600401602060405180830381865afa925050508015612ba157506040513d601f19601f82011682018060405250810190612b9e919061451a565b60015b612be257816040517f4c9c8ce3000000000000000000000000000000000000000000000000000000008152600401612bd99190613267565b60405180910390fd5b7f360894a13ba1a3210667c828492db98dca3e2076cc3735a920a3ca505d382bbc5f1b8114612c4857806040517faa1d49a4000000000000000000000000000000000000000000000000000000008152600401612c3f91906136cc565b60405180910390fd5b612c528383612e1a565b505050565b7f000000000000000000000000000000000000000000000000000000000000000073ffffffffffffffffffffffffffffffffffffffff163073ffffffffffffffffffffffffffffffffffffffff1614612cdc576040517fe07c8dba00000000000000000000000000000000000000000000000000000000815260040160405180910390fd5b565b5f5f8290505f5f90505b8151811015612d5257602060f81b828281518110612d0957612d08613bd9565b5b602001015160f81c60f81b7effffffffffffffffffffffffffffffffffffffffffffffffffffffffffffff191603612d45575f92505050612d59565b8080600101915050612ce8565b5060019150505b919050565b5f7ff0c57e16840df040f15088dc2f81fe391c3923bec73e23a9662efc9c229c6a005f1b905090565b612d8f612e8c565b612dc5576040517fd7e6bcf800000000000000000000000000000000000000000000000000000000815260040160405180910390fd5b565b5f612df37f360894a13ba1a3210667c828492db98dca3e2076cc3735a920a3ca505d382bbc5f1b612eaa565b5f015f9054906101000a900473ffffffffffffffffffffffffffffffffffffffff16905090565b612e2382612eb3565b8173ffffffffffffffffffffffffffffffffffffffff167fbc7cd75a20ee27fd9adebab32041f755214dbc6bffa90cc0225b39da2e5c2d3b60405160405180910390a25f81511115612e7f57612e798282612f7c565b50612e88565b612e87612ffc565b5b5050565b5f612e956129a4565b5f0160089054906101000a900460ff16905090565b5f819050919050565b5f8173ffffffffffffffffffffffffffffffffffffffff163b03612f0e57806040517f4c9c8ce3000000000000000000000000000000000000000000000000000000008152600401612f059190613267565b60405180910390fd5b80612f3a7f360894a13ba1a3210667c828492db98dca3e2076cc3735a920a3ca505d382bbc5f1b612eaa565b5f015f6101000a81548173ffffffffffffffffffffffffffffffffffffffff021916908373ffffffffffffffffffffffffffffffffffffffff16021790555050565b60605f5f8473ffffffffffffffffffffffffffffffffffffffff1684604051612fa59190614589565b5f60405180830381855af49150503d805f8114612fdd576040519150601f19603f3d011682016040523d82523d5f602084013e612fe2565b606091505b5091509150612ff2858383613038565b9250505092915050565b5f341115613036576040517fb398979f00000000000000000000000000000000000000000000000000000000815260040160405180910390fd5b565b60608261304d57613048826130c5565b6130bd565b5f825114801561307357505f8473ffffffffffffffffffffffffffffffffffffffff163b145b156130b557836040517f9996b3150000000000000000000000000000000000000000000000000000000081526004016130ac9190613267565b60405180910390fd5b8190506130be565b5b9392505050565b5f815111156130d75780518082602001fd5b6040517fd6bda27500000000000000000000000000000000000000000000000000000000815260040160405180910390fd5b5f819050919050565b61311b81613109565b82525050565b5f6020820190506131345f830184613112565b92915050565b5f604051905090565b5f5ffd5b5f5ffd5b5f73ffffffffffffffffffffffffffffffffffffffff82169050919050565b5f6131748261314b565b9050919050565b6131848161316a565b811461318e575f5ffd5b50565b5f8135905061319f8161317b565b92915050565b5f602082840312156131ba576131b9613143565b5b5f6131c784828501613191565b91505092915050565b6131d981613109565b81146131e3575f5ffd5b50565b5f813590506131f4816131d0565b92915050565b5f6020828403121561320f5761320e613143565b5b5f61321c848285016131e6565b91505092915050565b5f8115159050919050565b61323981613225565b82525050565b5f6020820190506132525f830184613230565b92915050565b6132618161316a565b82525050565b5f60208201905061327a5f830184613258565b92915050565b5f5f5f5f5f5f5f60e0888a03121561329b5761329a613143565b5b5f6132a88a828b01613191565b97505060206132b98a828b01613191565b96505060406132ca8a828b01613191565b95505060606132db8a828b016131e6565b94505060806132ec8a828b016131e6565b93505060a06132fd8a828b016131e6565b92505060c061330e8a828b016131e6565b91505092959891949750929550565b5f5ffd5b5f5ffd5b5f5ffd5b5f5f83601f84011261333e5761333d61331d565b5b8235905067ffffffffffffffff81111561335b5761335a613321565b5b60208301915083602082028301111561337757613376613325565b5b9250929050565b5f5f6020838503121561339457613393613143565b5b5f83013567ffffffffffffffff8111156133b1576133b0613147565b5b6133bd85828601613329565b92509250509250929050565b5f819050919050565b5f6133ec6133e76133e28461314b565b6133c9565b61314b565b9050919050565b5f6133fd826133d2565b9050919050565b5f61340e826133f3565b9050919050565b61341e81613404565b82525050565b5f6020820190506134375f830184613415565b92915050565b5f5ffd5b5f601f19601f8301169050919050565b7f4e487b71000000000000000000000000000000000000000000000000000000005f52604160045260245ffd5b61348782613441565b810181811067ffffffffffffffff821117156134a6576134a5613451565b5b80604052505050565b5f6134b861313a565b90506134c4828261347e565b919050565b5f67ffffffffffffffff8211156134e3576134e2613451565b5b6134ec82613441565b9050602081019050919050565b828183375f83830152505050565b5f613519613514846134c9565b6134af565b9050828152602081018484840111156135355761353461343d565b5b6135408482856134f9565b509392505050565b5f82601f83011261355c5761355b61331d565b5b813561356c848260208601613507565b91505092915050565b5f5f6040838503121561358b5761358a613143565b5b5f61359885828601613191565b925050602083013567ffffffffffffffff8111156135b9576135b8613147565b5b6135c585828601613548565b9150509250929050565b5f67ffffffffffffffff8211156135e9576135e8613451565b5b6135f282613441565b9050602081019050919050565b5f61361161360c846135cf565b6134af565b90508281526020810184848401111561362d5761362c61343d565b5b6136388482856134f9565b509392505050565b5f82601f8301126136545761365361331d565b5b81356136648482602086016135ff565b91505092915050565b5f6020828403121561368257613681613143565b5b5f82013567ffffffffffffffff81111561369f5761369e613147565b5b6136ab84828501613640565b91505092915050565b5f819050919050565b6136c6816136b4565b82525050565b5f6020820190506136df5f8301846136bd565b92915050565b6136ee81613225565b81146136f8575f5ffd5b50565b5f81359050613709816136e5565b92915050565b5f5f6040838503121561372557613724613143565b5b5f61373285828601613191565b9250506020613743858286016136fb565b9150509250929050565b5f819050919050565b61375f8161374d565b82525050565b5f6020820190506137785f830184613756565b92915050565b5f81519050919050565b5f82825260208201905092915050565b8281835e5f83830152505050565b5f6137b08261377e565b6137ba8185613788565b93506137ca818560208601613798565b6137d381613441565b840191505092915050565b5f6020820190508181035f8301526137f681846137a6565b905092915050565b5f5f6040838503121561381457613813613143565b5b5f61382185828601613191565b9250506020613832858286016131e6565b9150509250929050565b5f5f6040838503121561385257613851613143565b5b5f83013567ffffffffffffffff81111561386f5761386e613147565b5b61387b85828601613640565b925050602061388c858286016136fb565b9150509250929050565b7f556e617574686f72697a656421204f6e6c792073757065722061646d696e20635f8201527f616e20706572666f726d2074686973206f7065726174696f6e00000000000000602082015250565b5f6138f0603983613788565b91506138fb82613896565b604082019050919050565b5f6020820190508181035f83015261391d816138e4565b9050919050565b7f4e6f7420612076616c69642061646472657373000000000000000000000000005f82015250565b5f613958601383613788565b915061396382613924565b602082019050919050565b5f6020820190508181035f8301526139858161394c565b9050919050565b7f556e617574686f72697a656421204f6e6c792061646d696e2063616e207065725f8201527f666f726d2074686973206f7065726174696f6e00000000000000000000000000602082015250565b5f6139e6603383613788565b91506139f18261398c565b604082019050919050565b5f6020820190508181035f830152613a13816139da565b9050919050565b7f496e76616c6964204554482070726963652066726f6d206f7261636c650000005f82015250565b5f613a4e601d83613788565b9150613a5982613a1a565b602082019050919050565b5f6020820190508181035f830152613a7b81613a42565b9050919050565b7f4e487b71000000000000000000000000000000000000000000000000000000005f52601260045260245ffd5b7f4e487b71000000000000000000000000000000000000000000000000000000005f52601160045260245ffd5b5f613ae682613109565b9150613af183613109565b925082613b0157613b00613a82565b5b828204905092915050565b5f819050919050565b5f67ffffffffffffffff82169050919050565b5f613b42613b3d613b3884613b0c565b6133c9565b613b15565b9050919050565b613b5281613b28565b82525050565b5f602082019050613b6b5f830184613b49565b92915050565b7f496e76616c6964206c656e6774680000000000000000000000000000000000005f82015250565b5f613ba5600e83613788565b9150613bb082613b71565b602082019050919050565b5f6020820190508181035f830152613bd281613b99565b9050919050565b7f4e487b71000000000000000000000000000000000000000000000000000000005f52603260045260245ffd5b7f4e6f74206120636f6e74726163742061646472657373000000000000000000005f82015250565b5f613c3a601683613788565b9150613c4582613c06565b602082019050919050565b5f6020820190508181035f830152613c6781613c2e565b9050919050565b5f69ffffffffffffffffffff82169050919050565b613c8c81613c6e565b8114613c96575f5ffd5b50565b5f81519050613ca781613c83565b92915050565b613cb68161374d565b8114613cc0575f5ffd5b50565b5f81519050613cd181613cad565b92915050565b5f81519050613ce5816131d0565b92915050565b5f5f5f5f5f60a08688031215613d0457613d03613143565b5b5f613d1188828901613c99565b9550506020613d2288828901613cc3565b9450506040613d3388828901613cd7565b9350506060613d4488828901613cd7565b9250506080613d5588828901613c99565b9150509295509295909350565b7f4f6e6c79207469657220636f6e74726163742063616e20706572666f726d20745f8201527f686973206f7065726174696f6e00000000000000000000000000000000000000602082015250565b5f613dbc602d83613788565b9150613dc782613d62565b604082019050919050565b5f6020820190508181035f830152613de981613db0565b9050919050565b5f613dfa82613109565b9150613e0583613109565b9250828201905080821115613e1d57613e1c613aaf565b5b92915050565b7f4e487b71000000000000000000000000000000000000000000000000000000005f52602260045260245ffd5b5f6002820490506001821680613e6757607f821691505b602082108103613e7a57613e79613e23565b5b50919050565b7f436f6e7472616374206e6f742077686974656c697374656400000000000000005f82015250565b5f613eb4601883613788565b9150613ebf82613e80565b602082019050919050565b5f6020820190508181035f830152613ee181613ea8565b9050919050565b7f496e76616c696420726566657272616c20636f646500000000000000000000005f82015250565b5f613f1c601583613788565b9150613f2782613ee8565b602082019050919050565b5f6020820190508181035f830152613f4981613f10565b9050919050565b7f526566657272616c436f64652063616e6e6f7420636f6e7461696e20737061635f8201527f6573000000000000000000000000000000000000000000000000000000000000602082015250565b5f613faa602283613788565b9150613fb582613f50565b604082019050919050565b5f6020820190508181035f830152613fd781613f9e565b9050919050565b5f81905092915050565b5f613ff28261377e565b613ffc8185613fde565b935061400c818560208601613798565b80840191505092915050565b5f6140238284613fe8565b915081905092915050565b7f526566657272616c20636f646520616c726561647920657869737400000000005f82015250565b5f614062601b83613788565b915061406d8261402e565b602082019050919050565b5f6020820190508181035f83015261408f81614056565b9050919050565b7f5573657220616c72656164792067656e65726174656420726566657272616c205f8201527f636f646500000000000000000000000000000000000000000000000000000000602082015250565b5f6140f0602483613788565b91506140fb82614096565b604082019050919050565b5f6020820190508181035f83015261411d816140e4565b9050919050565b7f426c61636b6c69737465642055736572000000000000000000000000000000005f82015250565b5f614158601083613788565b915061416382614124565b602082019050919050565b5f6020820190508181035f8301526141858161414c565b9050919050565b7f55736572206b7963206973206e6f742076616c696400000000000000000000005f82015250565b5f6141c0601583613788565b91506141cb8261418c565b602082019050919050565b5f6020820190508181035f8301526141ed816141b4565b9050919050565b5f819050815f5260205f209050919050565b5f6020601f8301049050919050565b5f82821b905092915050565b5f600883026142507fffffffffffffffffffffffffffffffffffffffffffffffffffffffffffffffff82614215565b61425a8683614215565b95508019841693508086168417925050509392505050565b5f61428c61428761428284613109565b6133c9565b613109565b9050919050565b5f819050919050565b6142a583614272565b6142b96142b182614293565b848454614221565b825550505050565b5f5f905090565b6142d06142c1565b6142db81848461429c565b505050565b5b818110156142fe576142f35f826142c8565b6001810190506142e1565b5050565b601f82111561434357614314816141f4565b61431d84614206565b8101602085101561432c578190505b61434061433885614206565b8301826142e0565b50505b505050565b5f82821c905092915050565b5f6143635f1984600802614348565b1980831691505092915050565b5f61437b8383614354565b9150826002028217905092915050565b6143948261377e565b67ffffffffffffffff8111156143ad576143ac613451565b5b6143b78254613e50565b6143c2828285614302565b5f60209050601f8311600181146143f3575f84156143e1578287015190505b6143eb8582614370565b865550614452565b601f198416614401866141f4565b5f5b8281101561442857848901518255600182019150602085019450602081019050614403565b868310156144455784890151614441601f891682614354565b8355505b6001600288020188555050505b505050505050565b7f526566657272616c20636f6465206e6f742065786973740000000000000000005f82015250565b5f61448e601783613788565b91506144998261445a565b602082019050919050565b5f6020820190508181035f8301526144bb81614482565b9050919050565b5f6040820190508181035f8301526144da81856137a6565b90506144e96020830184613230565b9392505050565b6144f9816136b4565b8114614503575f5ffd5b50565b5f81519050614514816144f0565b92915050565b5f6020828403121561452f5761452e613143565b5b5f61453c84828501614506565b91505092915050565b5f81519050919050565b5f81905092915050565b5f61456382614545565b61456d818561454f565b935061457d818560208601613798565b80840191505092915050565b5f6145948284614559565b91508190509291505056fea264697066735822122087a3a75a7e9d49b16fd0cd47b86418b2852bcb34dc9bb5dd9765aec1e50476c364736f6c634300081c0033","linkReferences":{}},"methodIdentifiers":{"UPGRADE_INTERFACE_VERSION()":"ad3cb1cc","addInternalAccounts(address[])":"409c49d8","addressToReferralCode(address)":"b868e7a1","ethUsdPriceFeed()":"42f6fb29","generateReferralCode(string)":"f84d7802","getContractVersion()":"8aa10435","getLatestEthPriceInUsd()":"5dbb2c3c","getUsdPriceInEth()":"1c8c8f04","initialize(address,address,address,uint256,uint256,uint256,uint256)":"2b4656c8","internalAccounts(address)":"808d180b","internalWalletMaxHoldings()":"20ce3e27","isActiveReferral(string)":"52328b6f","isAdmin(address)":"24d7806c","isBlackListed(address)":"e47d6060","isContract(address)":"16279055","isKYC(address)":"9944f518","perUserCap()":"053f424d","proxiableUUID()":"52d1902d","referralCodeToAddress(string)":"d6f92372","referredCommissionPercentage()":"9e7de2b1","referrerCommissionPercentage()":"1d18f00b","removeInternalAccounts(address[])":"3ffa28ec","removeWhitelistedContract(address[])":"e789e695","superAdmin()":"29575f6a","supportedTokens(address)":"68c4ac26","test()":"f8a8fd6d","transferSuperAdmin(address)":"0c6dd9fd","updateAdminRole(address,bool)":"c2537372","updateBlackListUser(address,bool)":"ea54ff0e","updateHoldings(address,uint256)":"a720b8af","updateInternalWalletMaxHoldings(uint256)":"adff9270","updateKYCStatus(address,bool)":"53df9d76","updateReferredCommissionPercentage(uint256)":"2fe716f3","updateReferrerCommisionPercentage(uint256)":"11aa69c3","updateTest(uint256)":"87403404","updateUserReferralActiveness(string,bool)":"fd2bd06a","upgradeToAndCall(address,bytes)":"4f1ef286","userHoldings(address)":"84fc6de3","whitelistContract(address[])":"3f463129","whitelistedTierContracts(address)":"7842a46b"},"id":7}