{"abi":[{"type":"constructor","inputs":[],"stateMutability":"nonpayable"},{"type":"function","name":"allowance","inputs":[{"name":"owner","type":"address","internalType":"address"},{"name":"spender","type":"address","internalType":"address"}],"outputs":[{"name":"","type":"uint256","internalType":"uint256"}],"stateMutability":"view"},{"type":"function","name":"approve","inputs":[{"name":"spender","type":"address","internalType":"address"},{"name":"value","type":"uint256","internalType":"uint256"}],"outputs":[{"name":"","type":"bool","internalType":"bool"}],"stateMutability":"nonpayable"},{"type":"function","name":"balanceOf","inputs":[{"name":"account","type":"address","internalType":"address"}],"outputs":[{"name":"","type":"uint256","internalType":"uint256"}],"stateMutability":"view"},{"type":"function","name":"decimals","inputs":[],"outputs":[{"name":"","type":"uint8","internalType":"uint8"}],"stateMutability":"view"},{"type":"function","name":"mint","inputs":[{"name":"amount","type":"uint256","internalType":"uint256"}],"outputs":[],"stateMutability":"nonpayable"},{"type":"function","name":"name","inputs":[],"outputs":[{"name":"","type":"string","internalType":"string"}],"stateMutability":"view"},{"type":"function","name":"symbol","inputs":[],"outputs":[{"name":"","type":"string","internalType":"string"}],"stateMutability":"view"},{"type":"function","name":"totalSupply","inputs":[],"outputs":[{"name":"","type":"uint256","internalType":"uint256"}],"stateMutability":"view"},{"type":"function","name":"transfer","inputs":[{"name":"to","type":"address","internalType":"address"},{"name":"value","type":"uint256","internalType":"uint256"}],"outputs":[{"name":"","type":"bool","internalType":"bool"}],"stateMutability":"nonpayable"},{"type":"function","name":"transferFrom","inputs":[{"name":"from","type":"address","internalType":"address"},{"name":"to","type":"address","internalType":"address"},{"name":"value","type":"uint256","internalType":"uint256"}],"outputs":[{"name":"","type":"bool","internalType":"bool"}],"stateMutability":"nonpayable"},{"type":"event","name":"Approval","inputs":[{"name":"owner","type":"address","indexed":true,"internalType":"address"},{"name":"spender","type":"address","indexed":true,"internalType":"address"},{"name":"value","type":"uint256","indexed":false,"internalType":"uint256"}],"anonymous":false},{"type":"event","name":"Transfer","inputs":[{"name":"from","type":"address","indexed":true,"internalType":"address"},{"name":"to","type":"address","indexed":true,"internalType":"address"},{"name":"value","type":"uint256","indexed":false,"internalType":"uint256"}],"anonymous":false},{"type":"error","name":"ERC20InsufficientAllowance","inputs":[{"name":"spender","type":"address","internalType":"address"},{"name":"allowance","type":"uint256","internalType":"uint256"},{"name":"needed","type":"uint256","internalType":"uint256"}]},{"type":"error","name":"ERC20InsufficientBalance","inputs":[{"name":"sender","type":"address","internalType":"address"},{"name":"balance","type":"uint256","internalType":"uint256"},{"name":"needed","type":"uint256","internalType":"uint256"}]},{"type":"error","name":"ERC20InvalidApprover","inputs":[{"name":"approver","type":"address","internalType":"address"}]},{"type":"error","name":"ERC20InvalidReceiver","inputs":[{"name":"receiver","type":"address","internalType":"address"}]},{"type":"error","name":"ERC20InvalidSender","inputs":[{"name":"sender","type":"address","internalType":"address"}]},{"type":"error","name":"ERC20InvalidSpender","inputs":[{"name":"spender","type":"address","internalType":"address"}]}],"bytecode":{"object":"0x608060405234801561000f575f5ffd5b506040518060400160405280600981526020017f55534454546f6b656e00000000000000000000000000000000000000000000008152506040518060400160405280600481526020017f5553445400000000000000000000000000000000000000000000000000000000815250816003908161008b919061059a565b50806004908161009b919061059a565b5050506100ba336b204fce5e3e250261100000006100bf60201b60201c565b61077e565b5f73ffffffffffffffffffffffffffffffffffffffff168273ffffffffffffffffffffffffffffffffffffffff160361012f575f6040517fec442f0500000000000000000000000000000000000000000000000000000000815260040161012691906106a8565b60405180910390fd5b6101405f838361014460201b60201c565b5050565b5f73ffffffffffffffffffffffffffffffffffffffff168373ffffffffffffffffffffffffffffffffffffffff1603610194578060025f82825461018891906106ee565b92505081905550610262565b5f5f5f8573ffffffffffffffffffffffffffffffffffffffff1673ffffffffffffffffffffffffffffffffffffffff1681526020019081526020015f205490508181101561021d578381836040517fe450d38c00000000000000000000000000000000000000000000000000000000815260040161021493929190610730565b60405180910390fd5b8181035f5f8673ffffffffffffffffffffffffffffffffffffffff1673ffffffffffffffffffffffffffffffffffffffff1681526020019081526020015f2081905550505b5f73ffffffffffffffffffffffffffffffffffffffff168273ffffffffffffffffffffffffffffffffffffffff16036102a9578060025f82825403925050819055506102f3565b805f5f8473ffffffffffffffffffffffffffffffffffffffff1673ffffffffffffffffffffffffffffffffffffffff1681526020019081526020015f205f82825401925050819055505b8173ffffffffffffffffffffffffffffffffffffffff168373ffffffffffffffffffffffffffffffffffffffff167fddf252ad1be2c89b69c2b068fc378daa952ba7f163c4a11628f55a4df523b3ef836040516103509190610765565b60405180910390a3505050565b5f81519050919050565b7f4e487b71000000000000000000000000000000000000000000000000000000005f52604160045260245ffd5b7f4e487b71000000000000000000000000000000000000000000000000000000005f52602260045260245ffd5b5f60028204905060018216806103d857607f821691505b6020821081036103eb576103ea610394565b5b50919050565b5f819050815f5260205f209050919050565b5f6020601f8301049050919050565b5f82821b905092915050565b5f6008830261044d7fffffffffffffffffffffffffffffffffffffffffffffffffffffffffffffffff82610412565b6104578683610412565b95508019841693508086168417925050509392505050565b5f819050919050565b5f819050919050565b5f61049b6104966104918461046f565b610478565b61046f565b9050919050565b5f819050919050565b6104b483610481565b6104c86104c0826104a2565b84845461041e565b825550505050565b5f5f905090565b6104df6104d0565b6104ea8184846104ab565b505050565b5b8181101561050d576105025f826104d7565b6001810190506104f0565b5050565b601f82111561055257610523816103f1565b61052c84610403565b8101602085101561053b578190505b61054f61054785610403565b8301826104ef565b50505b505050565b5f82821c905092915050565b5f6105725f1984600802610557565b1980831691505092915050565b5f61058a8383610563565b9150826002028217905092915050565b6105a38261035d565b67ffffffffffffffff8111156105bc576105bb610367565b5b6105c682546103c1565b6105d1828285610511565b5f60209050601f831160018114610602575f84156105f0578287015190505b6105fa858261057f565b865550610661565b601f198416610610866103f1565b5f5b8281101561063757848901518255600182019150602085019450602081019050610612565b868310156106545784890151610650601f891682610563565b8355505b6001600288020188555050505b505050505050565b5f73ffffffffffffffffffffffffffffffffffffffff82169050919050565b5f61069282610669565b9050919050565b6106a281610688565b82525050565b5f6020820190506106bb5f830184610699565b92915050565b7f4e487b71000000000000000000000000000000000000000000000000000000005f52601160045260245ffd5b5f6106f88261046f565b91506107038361046f565b925082820190508082111561071b5761071a6106c1565b5b92915050565b61072a8161046f565b82525050565b5f6060820190506107435f830186610699565b6107506020830185610721565b61075d6040830184610721565b949350505050565b5f6020820190506107785f830184610721565b92915050565b6110668061078b5f395ff3fe608060405234801561000f575f5ffd5b506004361061009c575f3560e01c806370a082311161006457806370a082311461015a57806395d89b411461018a578063a0712d68146101a8578063a9059cbb146101c4578063dd62ed3e146101f45761009c565b806306fdde03146100a0578063095ea7b3146100be57806318160ddd146100ee57806323b872dd1461010c578063313ce5671461013c575b5f5ffd5b6100a8610224565b6040516100b59190610ba3565b60405180910390f35b6100d860048036038101906100d39190610c54565b6102b4565b6040516100e59190610cac565b60405180910390f35b6100f66102d6565b6040516101039190610cd4565b60405180910390f35b61012660048036038101906101219190610ced565b6102df565b6040516101339190610cac565b60405180910390f35b61014461030d565b6040516101519190610d58565b60405180910390f35b610174600480360381019061016f9190610d71565b610315565b6040516101819190610cd4565b60405180910390f35b61019261035a565b60405161019f9190610ba3565b60405180910390f35b6101c260048036038101906101bd9190610d9c565b6103ea565b005b6101de60048036038101906101d99190610c54565b61048c565b6040516101eb9190610cac565b60405180910390f35b61020e60048036038101906102099190610dc7565b6104ae565b60405161021b9190610cd4565b60405180910390f35b60606003805461023390610e32565b80601f016020809104026020016040519081016040528092919081815260200182805461025f90610e32565b80156102aa5780601f10610281576101008083540402835291602001916102aa565b820191905f5260205f20905b81548152906001019060200180831161028d57829003601f168201915b5050505050905090565b5f5f6102be610530565b90506102cb818585610537565b600191505092915050565b5f600254905090565b5f5f6102e9610530565b90506102f6858285610549565b6103018585856105dc565b60019150509392505050565b5f6006905090565b5f5f5f8373ffffffffffffffffffffffffffffffffffffffff1673ffffffffffffffffffffffffffffffffffffffff1681526020019081526020015f20549050919050565b60606004805461036990610e32565b80601f016020809104026020016040519081016040528092919081815260200182805461039590610e32565b80156103e05780601f106103b7576101008083540402835291602001916103e0565b820191905f5260205f20905b8154815290600101906020018083116103c357829003601f168201915b5050505050905090565b5f811161042c576040517f08c379a000000000000000000000000000000000000000000000000000000000815260040161042390610eac565b60405180910390fd5b620186a08110610471576040517f08c379a000000000000000000000000000000000000000000000000000000000815260040161046890610f14565b60405180910390fd5b61048933620f4240836104849190610f5f565b6106cc565b50565b5f5f610496610530565b90506104a38185856105dc565b600191505092915050565b5f60015f8473ffffffffffffffffffffffffffffffffffffffff1673ffffffffffffffffffffffffffffffffffffffff1681526020019081526020015f205f8373ffffffffffffffffffffffffffffffffffffffff1673ffffffffffffffffffffffffffffffffffffffff1681526020019081526020015f2054905092915050565b5f33905090565b610544838383600161074b565b505050565b5f61055484846104ae565b90507fffffffffffffffffffffffffffffffffffffffffffffffffffffffffffffffff8110156105d657818110156105c7578281836040517ffb8f41b20000000000000000000000000000000000000000000000000000000081526004016105be93929190610faf565b60405180910390fd5b6105d584848484035f61074b565b5b50505050565b5f73ffffffffffffffffffffffffffffffffffffffff168373ffffffffffffffffffffffffffffffffffffffff160361064c575f6040517f96c6fd1e0000000000000000000000000000000000000000000000000000000081526004016106439190610fe4565b60405180910390fd5b5f73ffffffffffffffffffffffffffffffffffffffff168273ffffffffffffffffffffffffffffffffffffffff16036106bc575f6040517fec442f050000000000000000000000000000000000000000000000000000000081526004016106b39190610fe4565b60405180910390fd5b6106c783838361091a565b505050565b5f73ffffffffffffffffffffffffffffffffffffffff168273ffffffffffffffffffffffffffffffffffffffff160361073c575f6040517fec442f050000000000000000000000000000000000000000000000000000000081526004016107339190610fe4565b60405180910390fd5b6107475f838361091a565b5050565b5f73ffffffffffffffffffffffffffffffffffffffff168473ffffffffffffffffffffffffffffffffffffffff16036107bb575f6040517fe602df050000000000000000000000000000000000000000000000000000000081526004016107b29190610fe4565b60405180910390fd5b5f73ffffffffffffffffffffffffffffffffffffffff168373ffffffffffffffffffffffffffffffffffffffff160361082b575f6040517f94280d620000000000000000000000000000000000000000000000000000000081526004016108229190610fe4565b60405180910390fd5b8160015f8673ffffffffffffffffffffffffffffffffffffffff1673ffffffffffffffffffffffffffffffffffffffff1681526020019081526020015f205f8573ffffffffffffffffffffffffffffffffffffffff1673ffffffffffffffffffffffffffffffffffffffff1681526020019081526020015f20819055508015610914578273ffffffffffffffffffffffffffffffffffffffff168473ffffffffffffffffffffffffffffffffffffffff167f8c5be1e5ebec7d5bd14f71427d1e84f3dd0314c0f7b2291e5b200ac8c7c3b9258460405161090b9190610cd4565b60405180910390a35b50505050565b5f73ffffffffffffffffffffffffffffffffffffffff168373ffffffffffffffffffffffffffffffffffffffff160361096a578060025f82825461095e9190610ffd565b92505081905550610a38565b5f5f5f8573ffffffffffffffffffffffffffffffffffffffff1673ffffffffffffffffffffffffffffffffffffffff1681526020019081526020015f20549050818110156109f3578381836040517fe450d38c0000000000000000000000000000000000000000000000000000000081526004016109ea93929190610faf565b60405180910390fd5b8181035f5f8673ffffffffffffffffffffffffffffffffffffffff1673ffffffffffffffffffffffffffffffffffffffff1681526020019081526020015f2081905550505b5f73ffffffffffffffffffffffffffffffffffffffff168273ffffffffffffffffffffffffffffffffffffffff1603610a7f578060025f8282540392505081905550610ac9565b805f5f8473ffffffffffffffffffffffffffffffffffffffff1673ffffffffffffffffffffffffffffffffffffffff1681526020019081526020015f205f82825401925050819055505b8173ffffffffffffffffffffffffffffffffffffffff168373ffffffffffffffffffffffffffffffffffffffff167fddf252ad1be2c89b69c2b068fc378daa952ba7f163c4a11628f55a4df523b3ef83604051610b269190610cd4565b60405180910390a3505050565b5f81519050919050565b5f82825260208201905092915050565b8281835e5f83830152505050565b5f601f19601f8301169050919050565b5f610b7582610b33565b610b7f8185610b3d565b9350610b8f818560208601610b4d565b610b9881610b5b565b840191505092915050565b5f6020820190508181035f830152610bbb8184610b6b565b905092915050565b5f5ffd5b5f73ffffffffffffffffffffffffffffffffffffffff82169050919050565b5f610bf082610bc7565b9050919050565b610c0081610be6565b8114610c0a575f5ffd5b50565b5f81359050610c1b81610bf7565b92915050565b5f819050919050565b610c3381610c21565b8114610c3d575f5ffd5b50565b5f81359050610c4e81610c2a565b92915050565b5f5f60408385031215610c6a57610c69610bc3565b5b5f610c7785828601610c0d565b9250506020610c8885828601610c40565b9150509250929050565b5f8115159050919050565b610ca681610c92565b82525050565b5f602082019050610cbf5f830184610c9d565b92915050565b610cce81610c21565b82525050565b5f602082019050610ce75f830184610cc5565b92915050565b5f5f5f60608486031215610d0457610d03610bc3565b5b5f610d1186828701610c0d565b9350506020610d2286828701610c0d565b9250506040610d3386828701610c40565b9150509250925092565b5f60ff82169050919050565b610d5281610d3d565b82525050565b5f602082019050610d6b5f830184610d49565b92915050565b5f60208284031215610d8657610d85610bc3565b5b5f610d9384828501610c0d565b91505092915050565b5f60208284031215610db157610db0610bc3565b5b5f610dbe84828501610c40565b91505092915050565b5f5f60408385031215610ddd57610ddc610bc3565b5b5f610dea85828601610c0d565b9250506020610dfb85828601610c0d565b9150509250929050565b7f4e487b71000000000000000000000000000000000000000000000000000000005f52602260045260245ffd5b5f6002820490506001821680610e4957607f821691505b602082108103610e5c57610e5b610e05565b5b50919050565b7f416d6f756e7420697320300000000000000000000000000000000000000000005f82015250565b5f610e96600b83610b3d565b9150610ea182610e62565b602082019050919050565b5f6020820190508181035f830152610ec381610e8a565b9050919050565b7f416d6f756e7420697320746f6f206869676800000000000000000000000000005f82015250565b5f610efe601283610b3d565b9150610f0982610eca565b602082019050919050565b5f6020820190508181035f830152610f2b81610ef2565b9050919050565b7f4e487b71000000000000000000000000000000000000000000000000000000005f52601160045260245ffd5b5f610f6982610c21565b9150610f7483610c21565b9250828202610f8281610c21565b91508282048414831517610f9957610f98610f32565b5b5092915050565b610fa981610be6565b82525050565b5f606082019050610fc25f830186610fa0565b610fcf6020830185610cc5565b610fdc6040830184610cc5565b949350505050565b5f602082019050610ff75f830184610fa0565b92915050565b5f61100782610c21565b915061101283610c21565b925082820190508082111561102a57611029610f32565b5b9291505056fea2646970667358221220ff3f6f5ba764b6c0aee4c25d424d63b671ff8aa67b73e89f965d455103df473964736f6c634300081c0033","linkReferences":{}},"methodIdentifiers":{"allowance(address,address)":"dd62ed3e","approve(address,uint256)":"095ea7b3","balanceOf(address)":"70a08231","decimals()":"313ce567","mint(uint256)":"a0712d68","name()":"06fdde03","symbol()":"95d89b41","totalSupply()":"18160ddd","transfer(address,uint256)":"a9059cbb","transferFrom(address,address,uint256)":"23b872dd"},"id":6}