{"abi":[{"type":"constructor","inputs":[{"name":"_totalNodes","type":"uint256","internalType":"uint256"},{"name":"baseTokenURI","type":"string","internalType":"string"},{"name":"_tier","type":"string","internalType":"string"},{"name":"_paymentReceiver","type":"address","internalType":"address"},{"name":"_autheoCentralStore","type":"address","internalType":"address"},{"name":"_nodePriceInUSD","type":"uint256","internalType":"uint256"}],"stateMutability":"nonpayable"},{"type":"function","name":"LOCK_PERIOD","inputs":[],"outputs":[{"name":"","type":"uint256","internalType":"uint256"}],"stateMutability":"view"},{"type":"function","name":"_nextTokenId","inputs":[],"outputs":[{"name":"","type":"uint256","internalType":"uint256"}],"stateMutability":"view"},{"type":"function","name":"admin","inputs":[],"outputs":[{"name":"","type":"address","internalType":"address"}],"stateMutability":"view"},{"type":"function","name":"approve","inputs":[{"name":"to","type":"address","internalType":"address"},{"name":"tokenId","type":"uint256","internalType":"uint256"}],"outputs":[],"stateMutability":"nonpayable"},{"type":"function","name":"autheoCentralStore","inputs":[],"outputs":[{"name":"","type":"address","internalType":"contract AutheoCentralStore"}],"stateMutability":"view"},{"type":"function","name":"availableNodes","inputs":[],"outputs":[{"name":"","type":"uint256","internalType":"uint256"}],"stateMutability":"view"},{"type":"function","name":"balanceOf","inputs":[{"name":"owner","type":"address","internalType":"address"}],"outputs":[{"name":"","type":"uint256","internalType":"uint256"}],"stateMutability":"view"},{"type":"function","name":"balanceOfContract","inputs":[],"outputs":[{"name":"","type":"uint256","internalType":"uint256"}],"stateMutability":"view"},{"type":"function","name":"getApproved","inputs":[{"name":"tokenId","type":"uint256","internalType":"uint256"}],"outputs":[{"name":"","type":"address","internalType":"address"}],"stateMutability":"view"},{"type":"function","name":"isApprovedForAll","inputs":[{"name":"owner","type":"address","internalType":"address"},{"name":"operator","type":"address","internalType":"address"}],"outputs":[{"name":"","type":"bool","internalType":"bool"}],"stateMutability":"view"},{"type":"function","name":"mint","inputs":[{"name":"_quantity","type":"uint256","internalType":"uint256"},{"name":"referralCode","type":"string","internalType":"string"}],"outputs":[],"stateMutability":"payable"},{"type":"function","name":"mintWithUSDCOrUSDT","inputs":[{"name":"_token","type":"address","internalType":"address"},{"name":"_quantity","type":"uint256","internalType":"uint256"},{"name":"referralCode","type":"string","internalType":"string"}],"outputs":[],"stateMutability":"nonpayable"},{"type":"function","name":"name","inputs":[],"outputs":[{"name":"","type":"string","internalType":"string"}],"stateMutability":"view"},{"type":"function","name":"nodePriceInUSD","inputs":[],"outputs":[{"name":"","type":"uint256","internalType":"uint256"}],"stateMutability":"view"},{"type":"function","name":"ownerOf","inputs":[{"name":"tokenId","type":"uint256","internalType":"uint256"}],"outputs":[{"name":"","type":"address","internalType":"address"}],"stateMutability":"view"},{"type":"function","name":"paymentReceiver","inputs":[],"outputs":[{"name":"","type":"address","internalType":"address"}],"stateMutability":"view"},{"type":"function","name":"safeTransferFrom","inputs":[{"name":"from","type":"address","internalType":"address"},{"name":"to","type":"address","internalType":"address"},{"name":"tokenId","type":"uint256","internalType":"uint256"}],"outputs":[],"stateMutability":"nonpayable"},{"type":"function","name":"safeTransferFrom","inputs":[{"name":"from","type":"address","internalType":"address"},{"name":"to","type":"address","internalType":"address"},{"name":"tokenId","type":"uint256","internalType":"uint256"},{"name":"data","type":"bytes","internalType":"bytes"}],"outputs":[],"stateMutability":"nonpayable"},{"type":"function","name":"setApprovalForAll","inputs":[{"name":"operator","type":"address","internalType":"address"},{"name":"approved","type":"bool","internalType":"bool"}],"outputs":[],"stateMutability":"nonpayable"},{"type":"function","name":"setBaseURI","inputs":[{"name":"baseTokenURI","type":"string","internalType":"string"}],"outputs":[],"stateMutability":"nonpayable"},{"type":"function","name":"supportsInterface","inputs":[{"name":"interfaceId","type":"bytes4","internalType":"bytes4"}],"outputs":[{"name":"","type":"bool","internalType":"bool"}],"stateMutability":"view"},{"type":"function","name":"symbol","inputs":[],"outputs":[{"name":"","type":"string","internalType":"string"}],"stateMutability":"view"},{"type":"function","name":"tier","inputs":[],"outputs":[{"name":"","type":"string","internalType":"string"}],"stateMutability":"view"},{"type":"function","name":"tokenBalanceOfContract","inputs":[{"name":"tokenAddress","type":"address","internalType":"address"}],"outputs":[{"name":"","type":"uint256","internalType":"uint256"}],"stateMutability":"view"},{"type":"function","name":"tokenMintTimestamp","inputs":[{"name":"","type":"uint256","internalType":"uint256"}],"outputs":[{"name":"","type":"uint256","internalType":"uint256"}],"stateMutability":"view"},{"type":"function","name":"tokenURI","inputs":[{"name":"tokenId","type":"uint256","internalType":"uint256"}],"outputs":[{"name":"","type":"string","internalType":"string"}],"stateMutability":"view"},{"type":"function","name":"totalNodes","inputs":[],"outputs":[{"name":"","type":"uint256","internalType":"uint256"}],"stateMutability":"view"},{"type":"function","name":"transferAdminRole","inputs":[{"name":"newAdmin","type":"address","internalType":"address"}],"outputs":[],"stateMutability":"nonpayable"},{"type":"function","name":"transferFrom","inputs":[{"name":"from","type":"address","internalType":"address"},{"name":"to","type":"address","internalType":"address"},{"name":"tokenId","type":"uint256","internalType":"uint256"}],"outputs":[],"stateMutability":"nonpayable"},{"type":"function","name":"updatePaymentReceiver","inputs":[{"name":"_paymentReceiver","type":"address","internalType":"address"}],"outputs":[],"stateMutability":"nonpayable"},{"type":"function","name":"withdraw","inputs":[],"outputs":[],"stateMutability":"nonpayable"},{"type":"function","name":"withdrawTokens","inputs":[{"name":"_token","type":"address","internalType":"address"}],"outputs":[],"stateMutability":"nonpayable"},{"type":"event","name":"AdminUpdated","inputs":[{"name":"newAdmin","type":"address","indexed":true,"internalType":"address"},{"name":"oldAdmin","type":"address","indexed":true,"internalType":"address"}],"anonymous":false},{"type":"event","name":"Approval","inputs":[{"name":"owner","type":"address","indexed":true,"internalType":"address"},{"name":"approved","type":"address","indexed":true,"internalType":"address"},{"name":"tokenId","type":"uint256","indexed":true,"internalType":"uint256"}],"anonymous":false},{"type":"event","name":"ApprovalForAll","inputs":[{"name":"owner","type":"address","indexed":true,"internalType":"address"},{"name":"operator","type":"address","indexed":true,"internalType":"address"},{"name":"approved","type":"bool","indexed":false,"internalType":"bool"}],"anonymous":false},{"type":"event","name":"ETHWithdrawn","inputs":[{"name":"paymentReceiver","type":"address","indexed":true,"internalType":"address"},{"name":"amount","type":"uint256","indexed":false,"internalType":"uint256"}],"anonymous":false},{"type":"event","name":"PaymentReceiverUpdated","inputs":[{"name":"newPaymentReceiver","type":"address","indexed":true,"internalType":"address"},{"name":"oldPaymentReceiver","type":"address","indexed":true,"internalType":"address"}],"anonymous":false},{"type":"event","name":"TokensWithdrawn","inputs":[{"name":"paymentReceiver","type":"address","indexed":true,"internalType":"address"},{"name":"token","type":"address","indexed":false,"internalType":"address"},{"name":"amount","type":"uint256","indexed":false,"internalType":"uint256"}],"anonymous":false},{"type":"event","name":"TradeOrder","inputs":[{"name":"sender","type":"address","indexed":true,"internalType":"address"},{"name":"quantity","type":"uint256","indexed":false,"internalType":"uint256"},{"name":"paymentMethod","type":"string","indexed":false,"internalType":"string"},{"name":"referralCode","type":"string","indexed":false,"internalType":"string"},{"name":"referredCommission","type":"uint256","indexed":false,"internalType":"uint256"},{"name":"referrerCommission","type":"uint256","indexed":false,"internalType":"uint256"},{"name":"contractAmount","type":"uint256","indexed":false,"internalType":"uint256"}],"anonymous":false},{"type":"event","name":"Transfer","inputs":[{"name":"from","type":"address","indexed":true,"internalType":"address"},{"name":"to","type":"address","indexed":true,"internalType":"address"},{"name":"tokenId","type":"uint256","indexed":true,"internalType":"uint256"}],"anonymous":false},{"type":"error","name":"ERC721IncorrectOwner","inputs":[{"name":"sender","type":"address","internalType":"address"},{"name":"tokenId","type":"uint256","internalType":"uint256"},{"name":"owner","type":"address","internalType":"address"}]},{"type":"error","name":"ERC721InsufficientApproval","inputs":[{"name":"operator","type":"address","internalType":"address"},{"name":"tokenId","type":"uint256","internalType":"uint256"}]},{"type":"error","name":"ERC721InvalidApprover","inputs":[{"name":"approver","type":"address","internalType":"address"}]},{"type":"error","name":"ERC721InvalidOperator","inputs":[{"name":"operator","type":"address","internalType":"address"}]},{"type":"error","name":"ERC721InvalidOwner","inputs":[{"name":"owner","type":"address","internalType":"address"}]},{"type":"error","name":"ERC721InvalidReceiver","inputs":[{"name":"receiver","type":"address","internalType":"address"}]},{"type":"error","name":"ERC721InvalidSender","inputs":[{"name":"sender","type":"address","internalType":"address"}]},{"type":"error","name":"ERC721NonexistentToken","inputs":[{"name":"tokenId","type":"uint256","internalType":"uint256"}]},{"type":"error","name":"ReentrancyGuardReentrantCall","inputs":[]}],"bytecode":{"object":"0x60e060405234801561000f575f5ffd5b506040516163a63803806163a68339818101604052810190610031919061046b565b6040518060400160405280601381526020017f41757468656f204e6f6465204c6963656e7365000000000000000000000000008152506040518060400160405280600381526020017f414e4c0000000000000000000000000000000000000000000000000000000000815250815f90816100ab9190610733565b5080600190816100bb9190610733565b50505060016006819055505f73ffffffffffffffffffffffffffffffffffffffff168373ffffffffffffffffffffffffffffffffffffffff1603610134576040517f08c379a000000000000000000000000000000000000000000000000000000000815260040161012b9061085c565b60405180910390fd5b5f73ffffffffffffffffffffffffffffffffffffffff168273ffffffffffffffffffffffffffffffffffffffff16036101a2576040517f08c379a00000000000000000000000000000000000000000000000000000000081526004016101999061085c565b60405180910390fd5b3360075f6101000a81548173ffffffffffffffffffffffffffffffffffffffff021916908373ffffffffffffffffffffffffffffffffffffffff1602179055508560a0818152505084600a90816101f99190610733565b5083600b90816102099190610733565b508260085f6101000a81548173ffffffffffffffffffffffffffffffffffffffff021916908373ffffffffffffffffffffffffffffffffffffffff1602179055508173ffffffffffffffffffffffffffffffffffffffff1660808173ffffffffffffffffffffffffffffffffffffffff16815250508060c0818152505050505050505061087a565b5f604051905090565b5f5ffd5b5f5ffd5b5f819050919050565b6102b4816102a2565b81146102be575f5ffd5b50565b5f815190506102cf816102ab565b92915050565b5f5ffd5b5f5ffd5b5f601f19601f8301169050919050565b7f4e487b71000000000000000000000000000000000000000000000000000000005f52604160045260245ffd5b610323826102dd565b810181811067ffffffffffffffff82111715610342576103416102ed565b5b80604052505050565b5f610354610291565b9050610360828261031a565b919050565b5f67ffffffffffffffff82111561037f5761037e6102ed565b5b610388826102dd565b9050602081019050919050565b8281835e5f83830152505050565b5f6103b56103b084610365565b61034b565b9050828152602081018484840111156103d1576103d06102d9565b5b6103dc848285610395565b509392505050565b5f82601f8301126103f8576103f76102d5565b5b81516104088482602086016103a3565b91505092915050565b5f73ffffffffffffffffffffffffffffffffffffffff82169050919050565b5f61043a82610411565b9050919050565b61044a81610430565b8114610454575f5ffd5b50565b5f8151905061046581610441565b92915050565b5f5f5f5f5f5f60c087890312156104855761048461029a565b5b5f61049289828a016102c1565b965050602087015167ffffffffffffffff8111156104b3576104b261029e565b5b6104bf89828a016103e4565b955050604087015167ffffffffffffffff8111156104e0576104df61029e565b5b6104ec89828a016103e4565b94505060606104fd89828a01610457565b935050608061050e89828a01610457565b92505060a061051f89828a016102c1565b9150509295509295509295565b5f81519050919050565b7f4e487b71000000000000000000000000000000000000000000000000000000005f52602260045260245ffd5b5f600282049050600182168061057a57607f821691505b60208210810361058d5761058c610536565b5b50919050565b5f819050815f5260205f209050919050565b5f6020601f8301049050919050565b5f82821b905092915050565b5f600883026105ef7fffffffffffffffffffffffffffffffffffffffffffffffffffffffffffffffff826105b4565b6105f986836105b4565b95508019841693508086168417925050509392505050565b5f819050919050565b5f61063461062f61062a846102a2565b610611565b6102a2565b9050919050565b5f819050919050565b61064d8361061a565b6106616106598261063b565b8484546105c0565b825550505050565b5f5f905090565b610678610669565b610683818484610644565b505050565b5b818110156106a65761069b5f82610670565b600181019050610689565b5050565b601f8211156106eb576106bc81610593565b6106c5846105a5565b810160208510156106d4578190505b6106e86106e0856105a5565b830182610688565b50505b505050565b5f82821c905092915050565b5f61070b5f19846008026106f0565b1980831691505092915050565b5f61072383836106fc565b9150826002028217905092915050565b61073c8261052c565b67ffffffffffffffff811115610755576107546102ed565b5b61075f8254610563565b61076a8282856106aa565b5f60209050601f83116001811461079b575f8415610789578287015190505b6107938582610718565b8655506107fa565b601f1984166107a986610593565b5f5b828110156107d0578489015182556001820191506020850194506020810190506107ab565b868310156107ed57848901516107e9601f8916826106fc565b8355505b6001600288020188555050505b505050505050565b5f82825260208201905092915050565b7f4e6f7420612076616c69642061646472657373000000000000000000000000005f82015250565b5f610846601383610802565b915061085182610812565b602082019050919050565b5f6020820190508181035f8301526108738161083a565b9050919050565b60805160a05160c051615a1b61098b5f395f81816118d9015281816127360152612d0901525f8181610b76015281816116b0015281816124840152612d2d01525f8181610f090152818161120f0152818161132b015281816113c8015281816114560152818161153e015281816115cc01528181611723015281816117fd0152818161192501528181611a0101528181611c3d01528181611cd801528181611e00015281816120ff0152818161219c0152818161222a01528181612312015281816123a0015281816124f7015281816125d1015281816126a90152818161277e0152818161285a01528181612a1001528181612aab01528181612b9b01528181612ce5015261300b0152615a1b5ff3fe6080604052600436106101e2575f3560e01c80636352211e11610101578063ada8f91911610094578063cb37f3b211610063578063cb37f3b2146106c6578063e6c7c456146106f0578063e985e9c51461071a578063f851a44014610756576101e2565b8063ada8f919146105fe578063b88d4fde14610626578063bb1accd71461064e578063c87b56dd1461068a576101e2565b8063928210fc116100d0578063928210fc146105585780639592d4241461058257806395d89b41146105ac578063a22cb465146105d6576101e2565b80636352211e1461049a57806370a08231146104d657806377097fc8146105125780638893d9de1461052e576101e2565b806323b872dd1161017957806349df728c1161014857806349df728c146103f85780634a60f6201461042057806354185e811461044a57806355f804b314610472576101e2565b806323b872dd146103565780633b9af5e91461037e5780633ccfd60b146103ba57806342842e0e146103d0576101e2565b80630bdfe46c116101b55780630bdfe46c146102b057806316f4d022146102d85780631820cabb14610302578063204401e71461032c576101e2565b806301ffc9a7146101e657806306fdde0314610222578063081812fc1461024c578063095ea7b314610288575b5f5ffd5b3480156101f1575f5ffd5b5061020c6004803603810190610207919061423b565b610780565b6040516102199190614280565b60405180910390f35b34801561022d575f5ffd5b50610236610861565b6040516102439190614309565b60405180910390f35b348015610257575f5ffd5b50610272600480360381019061026d919061435c565b6108f0565b60405161027f91906143c6565b60405180910390f35b348015610293575f5ffd5b506102ae60048036038101906102a99190614409565b61090b565b005b3480156102bb575f5ffd5b506102d660048036038101906102d19190614447565b610921565b005b3480156102e3575f5ffd5b506102ec610adc565b6040516102f99190614309565b60405180910390f35b34801561030d575f5ffd5b50610316610b68565b6040516103239190614481565b60405180910390f35b348015610337575f5ffd5b50610340610b70565b60405161034d9190614481565b60405180910390f35b348015610361575f5ffd5b5061037c6004803603810190610377919061449a565b610ba4565b005b348015610389575f5ffd5b506103a4600480360381019061039f919061435c565b610c17565b6040516103b19190614481565b60405180910390f35b3480156103c5575f5ffd5b506103ce610c2c565b005b3480156103db575f5ffd5b506103f660048036038101906103f1919061449a565b610e4d565b005b348015610403575f5ffd5b5061041e60048036038101906104199190614447565b610e6c565b005b34801561042b575f5ffd5b506104346111fb565b6040516104419190614481565b60405180910390f35b348015610455575f5ffd5b50610470600480360381019061046b9190614616565b611201565b005b34801561047d575f5ffd5b5061049860048036038101906104939190614682565b611f4a565b005b3480156104a5575f5ffd5b506104c060048036038101906104bb919061435c565b611fec565b6040516104cd91906143c6565b60405180910390f35b3480156104e1575f5ffd5b506104fc60048036038101906104f79190614447565b611ffd565b6040516105099190614481565b60405180910390f35b61052c600480360381019061052791906146c9565b6120b3565b005b348015610539575f5ffd5b50610542612ce3565b60405161054f919061477e565b60405180910390f35b348015610563575f5ffd5b5061056c612d07565b6040516105799190614481565b60405180910390f35b34801561058d575f5ffd5b50610596612d2b565b6040516105a39190614481565b60405180910390f35b3480156105b7575f5ffd5b506105c0612d4f565b6040516105cd9190614309565b60405180910390f35b3480156105e1575f5ffd5b506105fc60048036038101906105f791906147c1565b612ddf565b005b348015610609575f5ffd5b50610624600480360381019061061f9190614447565b612df5565b005b348015610631575f5ffd5b5061064c6004803603810190610647919061489d565b612f8f565b005b348015610659575f5ffd5b50610674600480360381019061066f9190614447565b613004565b6040516106819190614481565b60405180910390f35b348015610695575f5ffd5b506106b060048036038101906106ab919061435c565b613162565b6040516106bd9190614309565b60405180910390f35b3480156106d1575f5ffd5b506106da6131c8565b6040516106e791906143c6565b60405180910390f35b3480156106fb575f5ffd5b506107046131ed565b6040516107119190614481565b60405180910390f35b348015610725575f5ffd5b50610740600480360381019061073b919061491d565b6131f4565b60405161074d9190614280565b60405180910390f35b348015610761575f5ffd5b5061076a613282565b60405161077791906143c6565b60405180910390f35b5f7f80ac58cd000000000000000000000000000000000000000000000000000000007bffffffffffffffffffffffffffffffffffffffffffffffffffffffff1916827bffffffffffffffffffffffffffffffffffffffffffffffffffffffff1916148061084a57507f5b5e139f000000000000000000000000000000000000000000000000000000007bffffffffffffffffffffffffffffffffffffffffffffffffffffffff1916827bffffffffffffffffffffffffffffffffffffffffffffffffffffffff1916145b8061085a5750610859826132a7565b5b9050919050565b60605f805461086f90614988565b80601f016020809104026020016040519081016040528092919081815260200182805461089b90614988565b80156108e65780601f106108bd576101008083540402835291602001916108e6565b820191905f5260205f20905b8154815290600101906020018083116108c957829003601f168201915b5050505050905090565b5f6108fa82613310565b5061090482613396565b9050919050565b61091d82826109186133cf565b6133d6565b5050565b60075f9054906101000a900473ffffffffffffffffffffffffffffffffffffffff1673ffffffffffffffffffffffffffffffffffffffff163373ffffffffffffffffffffffffffffffffffffffff16146109b0576040517f08c379a00000000000000000000000000000000000000000000000000000000081526004016109a790614a28565b60405180910390fd5b5f73ffffffffffffffffffffffffffffffffffffffff168173ffffffffffffffffffffffffffffffffffffffff1603610a1e576040517f08c379a0000000000000000000000000000000000000000000000000000000008152600401610a1590614a90565b60405180910390fd5b60085f9054906101000a900473ffffffffffffffffffffffffffffffffffffffff1673ffffffffffffffffffffffffffffffffffffffff168173ffffffffffffffffffffffffffffffffffffffff167f7624d2b1b42408d9c15d3542ca5b5c61cb0db48787ddee0405ca78daa31622d260405160405180910390a38060085f6101000a81548173ffffffffffffffffffffffffffffffffffffffff021916908373ffffffffffffffffffffffffffffffffffffffff16021790555050565b600b8054610ae990614988565b80601f0160208091040260200160405190810160405280929190818152602001828054610b1590614988565b8015610b605780601f10610b3757610100808354040283529160200191610b60565b820191905f5260205f20905b815481529060010190602001808311610b4357829003601f168201915b505050505081565b6301e1338081565b5f6009547f0000000000000000000000000000000000000000000000000000000000000000610b9f9190614adb565b905090565b6301e13380600c5f8381526020019081526020015f2054610bc59190614b0e565b421015610c07576040517f08c379a0000000000000000000000000000000000000000000000000000000008152600401610bfe90614b8b565b60405180910390fd5b610c128383836133e8565b505050565b600c602052805f5260405f205f915090505481565b60075f9054906101000a900473ffffffffffffffffffffffffffffffffffffffff1673ffffffffffffffffffffffffffffffffffffffff163373ffffffffffffffffffffffffffffffffffffffff1614610cbb576040517f08c379a0000000000000000000000000000000000000000000000000000000008152600401610cb290614a28565b60405180910390fd5b610cc36134e7565b5f4790505f8111610d09576040517f08c379a0000000000000000000000000000000000000000000000000000000008152600401610d0090614bf3565b60405180910390fd5b60085f9054906101000a900473ffffffffffffffffffffffffffffffffffffffff1673ffffffffffffffffffffffffffffffffffffffff167f94b2de810873337ed265c5f8cf98c9cffefa06b8607f9a2f1fbaebdfbcfbef1c82604051610d709190614481565b60405180910390a25f60085f9054906101000a900473ffffffffffffffffffffffffffffffffffffffff1673ffffffffffffffffffffffffffffffffffffffff1682604051610dbe90614c3e565b5f6040518083038185875af1925050503d805f8114610df8576040519150601f19603f3d011682016040523d82523d5f602084013e610dfd565b606091505b5050905080610e41576040517f08c379a0000000000000000000000000000000000000000000000000000000008152600401610e3890614cc2565b60405180910390fd5b5050610e4b61352d565b565b610e6783838360405180602001604052805f815250612f8f565b505050565b60075f9054906101000a900473ffffffffffffffffffffffffffffffffffffffff1673ffffffffffffffffffffffffffffffffffffffff163373ffffffffffffffffffffffffffffffffffffffff1614610efb576040517f08c379a0000000000000000000000000000000000000000000000000000000008152600401610ef290614a28565b60405180910390fd5b610f036134e7565b600115157f000000000000000000000000000000000000000000000000000000000000000073ffffffffffffffffffffffffffffffffffffffff166368c4ac26836040518263ffffffff1660e01b8152600401610f6091906143c6565b602060405180830381865afa158015610f7b573d5f5f3e3d5ffd5b505050506040513d601f19601f82011682018060405250810190610f9f9190614cf4565b151514610fe1576040517f08c379a0000000000000000000000000000000000000000000000000000000008152600401610fd890614d69565b60405180910390fd5b5f8190505f8173ffffffffffffffffffffffffffffffffffffffff166370a08231306040518263ffffffff1660e01b815260040161101f91906143c6565b602060405180830381865afa15801561103a573d5f5f3e3d5ffd5b505050506040513d601f19601f8201168201806040525081019061105e9190614d9b565b90505f81116110a2576040517f08c379a000000000000000000000000000000000000000000000000000000000815260040161109990614e10565b60405180910390fd5b60085f9054906101000a900473ffffffffffffffffffffffffffffffffffffffff1673ffffffffffffffffffffffffffffffffffffffff167f6337ed398c0e8467698c581374fdce4db14922df487b5a39483079f5f59b60a4848360405161110b929190614e2e565b60405180910390a28173ffffffffffffffffffffffffffffffffffffffff1663a9059cbb60085f9054906101000a900473ffffffffffffffffffffffffffffffffffffffff16836040518363ffffffff1660e01b815260040161116f929190614e2e565b6020604051808303815f875af115801561118b573d5f5f3e3d5ffd5b505050506040513d601f19601f820116820180604052508101906111af9190614cf4565b6111ee576040517f08c379a00000000000000000000000000000000000000000000000000000000081526004016111e590614ec5565b60405180910390fd5b50506111f861352d565b50565b60095481565b6112096134e7565b600115157f000000000000000000000000000000000000000000000000000000000000000073ffffffffffffffffffffffffffffffffffffffff166368c4ac26856040518263ffffffff1660e01b815260040161126691906143c6565b602060405180830381865afa158015611281573d5f5f3e3d5ffd5b505050506040513d601f19601f820116820180604052508101906112a59190614cf4565b1515146112e7576040517f08c379a00000000000000000000000000000000000000000000000000000000081526004016112de90614d69565b60405180910390fd5b5f8203611329576040517f08c379a000000000000000000000000000000000000000000000000000000000815260040161132090614f2d565b60405180910390fd5b7f000000000000000000000000000000000000000000000000000000000000000073ffffffffffffffffffffffffffffffffffffffff1663808d180b336040518263ffffffff1660e01b815260040161138291906143c6565b602060405180830381865afa15801561139d573d5f5f3e3d5ffd5b505050506040513d601f19601f820116820180604052508101906113c19190614cf4565b1561153c577f000000000000000000000000000000000000000000000000000000000000000073ffffffffffffffffffffffffffffffffffffffff166320ce3e276040518163ffffffff1660e01b8152600401602060405180830381865afa15801561142f573d5f5f3e3d5ffd5b505050506040513d601f19601f820116820180604052508101906114539190614d9b565b827f000000000000000000000000000000000000000000000000000000000000000073ffffffffffffffffffffffffffffffffffffffff166384fc6de3336040518263ffffffff1660e01b81526004016114ad91906143c6565b602060405180830381865afa1580156114c8573d5f5f3e3d5ffd5b505050506040513d601f19601f820116820180604052508101906114ec9190614d9b565b6114f69190614b0e565b1115611537576040517f08c379a000000000000000000000000000000000000000000000000000000000815260040161152e90614f95565b60405180910390fd5b6116ae565b7f000000000000000000000000000000000000000000000000000000000000000073ffffffffffffffffffffffffffffffffffffffff1663053f424d6040518163ffffffff1660e01b8152600401602060405180830381865afa1580156115a5573d5f5f3e3d5ffd5b505050506040513d601f19601f820116820180604052508101906115c99190614d9b565b827f000000000000000000000000000000000000000000000000000000000000000073ffffffffffffffffffffffffffffffffffffffff166384fc6de3336040518263ffffffff1660e01b815260040161162391906143c6565b602060405180830381865afa15801561163e573d5f5f3e3d5ffd5b505050506040513d601f19601f820116820180604052508101906116629190614d9b565b61166c9190614b0e565b11156116ad576040517f08c379a00000000000000000000000000000000000000000000000000000000081526004016116a490614f95565b60405180910390fd5b5b7f0000000000000000000000000000000000000000000000000000000000000000826009546116dd9190614b0e565b111561171e576040517f08c379a000000000000000000000000000000000000000000000000000000000815260040161171590614ffd565b60405180910390fd5b5f15157f000000000000000000000000000000000000000000000000000000000000000073ffffffffffffffffffffffffffffffffffffffff1663e47d6060336040518263ffffffff1660e01b815260040161177a91906143c6565b602060405180830381865afa158015611795573d5f5f3e3d5ffd5b505050506040513d601f19601f820116820180604052508101906117b99190614cf4565b1515146117fb576040517f08c379a00000000000000000000000000000000000000000000000000000000081526004016117f290615065565b60405180910390fd5b7f000000000000000000000000000000000000000000000000000000000000000073ffffffffffffffffffffffffffffffffffffffff16639944f518336040518263ffffffff1660e01b815260040161185491906143c6565b602060405180830381865afa15801561186f573d5f5f3e3d5ffd5b505050506040513d601f19601f820116820180604052508101906118939190614cf4565b6118d2576040517f08c379a00000000000000000000000000000000000000000000000000000000081526004016118c9906150cd565b60405180910390fd5b5f620f42407f00000000000000000000000000000000000000000000000000000000000000008461190391906150eb565b61190d91906150eb565b90505f8490505f5f90505f845114611ab257600115157f000000000000000000000000000000000000000000000000000000000000000073ffffffffffffffffffffffffffffffffffffffff166352328b6f866040518263ffffffff1660e01b815260040161197c9190614309565b602060405180830381865afa158015611997573d5f5f3e3d5ffd5b505050506040513d601f19601f820116820180604052508101906119bb9190614cf4565b1515146119fd576040517f08c379a00000000000000000000000000000000000000000000000000000000081526004016119f490615176565b60405180910390fd5b60647f000000000000000000000000000000000000000000000000000000000000000073ffffffffffffffffffffffffffffffffffffffff16639e7de2b16040518163ffffffff1660e01b8152600401602060405180830381865afa158015611a68573d5f5f3e3d5ffd5b505050506040513d601f19601f82011682018060405250810190611a8c9190614d9b565b84611a9791906150eb565b611aa191906151c1565b90508083611aaf9190614adb565b92505b828273ffffffffffffffffffffffffffffffffffffffff1663dd62ed3e33306040518363ffffffff1660e01b8152600401611aee9291906151f1565b602060405180830381865afa158015611b09573d5f5f3e3d5ffd5b505050506040513d601f19601f82011682018060405250810190611b2d9190614d9b565b1015611b6e576040517f08c379a0000000000000000000000000000000000000000000000000000000008152600401611b6590615262565b60405180910390fd5b5f8273ffffffffffffffffffffffffffffffffffffffff166323b872dd3330876040518463ffffffff1660e01b8152600401611bac93929190615280565b6020604051808303815f875af1158015611bc8573d5f5f3e3d5ffd5b505050506040513d601f19601f82011682018060405250810190611bec9190614cf4565b905080611c2e576040517f08c379a0000000000000000000000000000000000000000000000000000000008152600401611c25906152ff565b60405180910390fd5b5f5f90505f865114611dfe575f7f000000000000000000000000000000000000000000000000000000000000000073ffffffffffffffffffffffffffffffffffffffff1663d6f92372886040518263ffffffff1660e01b8152600401611c949190614309565b602060405180830381865afa158015611caf573d5f5f3e3d5ffd5b505050506040513d601f19601f82011682018060405250810190611cd39190615331565b90505f7f000000000000000000000000000000000000000000000000000000000000000073ffffffffffffffffffffffffffffffffffffffff16631d18f00b6040518163ffffffff1660e01b8152600401602060405180830381865afa158015611d3f573d5f5f3e3d5ffd5b505050506040513d601f19601f82011682018060405250810190611d639190614d9b565b905060648188611d7391906150eb565b611d7d91906151c1565b92508573ffffffffffffffffffffffffffffffffffffffff1663a9059cbb83856040518363ffffffff1660e01b8152600401611dba929190614e2e565b6020604051808303815f875af1158015611dd6573d5f5f3e3d5ffd5b505050506040513d601f19601f82011682018060405250810190611dfa9190614cf4565b5050505b7f000000000000000000000000000000000000000000000000000000000000000073ffffffffffffffffffffffffffffffffffffffff1663a720b8af33896040518363ffffffff1660e01b8152600401611e59929190614e2e565b5f604051808303815f87803b158015611e70575f5ffd5b505af1158015611e82573d5f5f3e3d5ffd5b505050505f5f90505b87811015611ed6575f60095f8154611ea29061535c565b9190508190559050611eb43382613537565b42600c5f8381526020019081526020015f208190555050806001019050611e8b565b503373ffffffffffffffffffffffffffffffffffffffff167f42c9d9d3f1e92e0fa6acf10de4bc086be0aded74e8c0f091c5142d5677842b6688888685868b611f1f9190614adb565b604051611f309594939291906153ed565b60405180910390a25050505050611f4561352d565b505050565b60075f9054906101000a900473ffffffffffffffffffffffffffffffffffffffff1673ffffffffffffffffffffffffffffffffffffffff163373ffffffffffffffffffffffffffffffffffffffff1614611fd9576040517f08c379a0000000000000000000000000000000000000000000000000000000008152600401611fd090614a28565b60405180910390fd5b80600a9081611fe891906155ef565b5050565b5f611ff682613310565b9050919050565b5f5f73ffffffffffffffffffffffffffffffffffffffff168273ffffffffffffffffffffffffffffffffffffffff160361206e575f6040517f89c62b6400000000000000000000000000000000000000000000000000000000815260040161206591906143c6565b60405180910390fd5b60035f8373ffffffffffffffffffffffffffffffffffffffff1673ffffffffffffffffffffffffffffffffffffffff1681526020019081526020015f20549050919050565b6120bb6134e7565b5f82036120fd576040517f08c379a00000000000000000000000000000000000000000000000000000000081526004016120f490614f2d565b60405180910390fd5b7f000000000000000000000000000000000000000000000000000000000000000073ffffffffffffffffffffffffffffffffffffffff1663808d180b336040518263ffffffff1660e01b815260040161215691906143c6565b602060405180830381865afa158015612171573d5f5f3e3d5ffd5b505050506040513d601f19601f820116820180604052508101906121959190614cf4565b15612310577f000000000000000000000000000000000000000000000000000000000000000073ffffffffffffffffffffffffffffffffffffffff166320ce3e276040518163ffffffff1660e01b8152600401602060405180830381865afa158015612203573d5f5f3e3d5ffd5b505050506040513d601f19601f820116820180604052508101906122279190614d9b565b827f000000000000000000000000000000000000000000000000000000000000000073ffffffffffffffffffffffffffffffffffffffff166384fc6de3336040518263ffffffff1660e01b815260040161228191906143c6565b602060405180830381865afa15801561229c573d5f5f3e3d5ffd5b505050506040513d601f19601f820116820180604052508101906122c09190614d9b565b6122ca9190614b0e565b111561230b576040517f08c379a000000000000000000000000000000000000000000000000000000000815260040161230290614f95565b60405180910390fd5b612482565b7f000000000000000000000000000000000000000000000000000000000000000073ffffffffffffffffffffffffffffffffffffffff1663053f424d6040518163ffffffff1660e01b8152600401602060405180830381865afa158015612379573d5f5f3e3d5ffd5b505050506040513d601f19601f8201168201806040525081019061239d9190614d9b565b827f000000000000000000000000000000000000000000000000000000000000000073ffffffffffffffffffffffffffffffffffffffff166384fc6de3336040518263ffffffff1660e01b81526004016123f791906143c6565b602060405180830381865afa158015612412573d5f5f3e3d5ffd5b505050506040513d601f19601f820116820180604052508101906124369190614d9b565b6124409190614b0e565b1115612481576040517f08c379a000000000000000000000000000000000000000000000000000000000815260040161247890614f95565b60405180910390fd5b5b7f0000000000000000000000000000000000000000000000000000000000000000826009546124b19190614b0e565b11156124f2576040517f08c379a00000000000000000000000000000000000000000000000000000000081526004016124e990614ffd565b60405180910390fd5b5f15157f000000000000000000000000000000000000000000000000000000000000000073ffffffffffffffffffffffffffffffffffffffff1663e47d6060336040518263ffffffff1660e01b815260040161254e91906143c6565b602060405180830381865afa158015612569573d5f5f3e3d5ffd5b505050506040513d601f19601f8201168201806040525081019061258d9190614cf4565b1515146125cf576040517f08c379a00000000000000000000000000000000000000000000000000000000081526004016125c690615065565b60405180910390fd5b7f000000000000000000000000000000000000000000000000000000000000000073ffffffffffffffffffffffffffffffffffffffff16639944f518336040518263ffffffff1660e01b815260040161262891906143c6565b602060405180830381865afa158015612643573d5f5f3e3d5ffd5b505050506040513d601f19601f820116820180604052508101906126679190614cf4565b6126a6576040517f08c379a000000000000000000000000000000000000000000000000000000000815260040161269d906150cd565b60405180910390fd5b5f7f000000000000000000000000000000000000000000000000000000000000000073ffffffffffffffffffffffffffffffffffffffff16631c8c8f046040518163ffffffff1660e01b8152600401602060405180830381865afa158015612710573d5f5f3e3d5ffd5b505050506040513d601f19601f820116820180604052508101906127349190614d9b565b7f000000000000000000000000000000000000000000000000000000000000000061275f91906150eb565b8361276a91906150eb565b90505f5f90505f83511461290b57600115157f000000000000000000000000000000000000000000000000000000000000000073ffffffffffffffffffffffffffffffffffffffff166352328b6f856040518263ffffffff1660e01b81526004016127d59190614309565b602060405180830381865afa1580156127f0573d5f5f3e3d5ffd5b505050506040513d601f19601f820116820180604052508101906128149190614cf4565b151514612856576040517f08c379a000000000000000000000000000000000000000000000000000000000815260040161284d90615176565b60405180910390fd5b60647f000000000000000000000000000000000000000000000000000000000000000073ffffffffffffffffffffffffffffffffffffffff16639e7de2b16040518163ffffffff1660e01b8152600401602060405180830381865afa1580156128c1573d5f5f3e3d5ffd5b505050506040513d601f19601f820116820180604052508101906128e59190614d9b565b836128f091906150eb565b6128fa91906151c1565b905080826129089190614adb565b91505b8134101561294e576040517f08c379a000000000000000000000000000000000000000000000000000000000815260040161294590615708565b60405180910390fd5b5f3373ffffffffffffffffffffffffffffffffffffffff1683346129729190614adb565b60405161297e90614c3e565b5f6040518083038185875af1925050503d805f81146129b8576040519150601f19603f3d011682016040523d82523d5f602084013e6129bd565b606091505b5050905080612a01576040517f08c379a00000000000000000000000000000000000000000000000000000000081526004016129f890615770565b60405180910390fd5b5f5f90505f855114612b99575f7f000000000000000000000000000000000000000000000000000000000000000073ffffffffffffffffffffffffffffffffffffffff1663d6f92372876040518263ffffffff1660e01b8152600401612a679190614309565b602060405180830381865afa158015612a82573d5f5f3e3d5ffd5b505050506040513d601f19601f82011682018060405250810190612aa69190615331565b90505f7f000000000000000000000000000000000000000000000000000000000000000073ffffffffffffffffffffffffffffffffffffffff16631d18f00b6040518163ffffffff1660e01b8152600401602060405180830381865afa158015612b12573d5f5f3e3d5ffd5b505050506040513d601f19601f82011682018060405250810190612b369190614d9b565b905060648187612b4691906150eb565b612b5091906151c1565b92508173ffffffffffffffffffffffffffffffffffffffff166108fc8490811502906040515f60405180830381858888f19350505050158015612b95573d5f5f3e3d5ffd5b5050505b7f000000000000000000000000000000000000000000000000000000000000000073ffffffffffffffffffffffffffffffffffffffff1663a720b8af33886040518363ffffffff1660e01b8152600401612bf4929190614e2e565b5f604051808303815f87803b158015612c0b575f5ffd5b505af1158015612c1d573d5f5f3e3d5ffd5b505050505f5f90505b86811015612c71575f60095f8154612c3d9061535c565b9190508190559050612c4f3382613537565b42600c5f8381526020019081526020015f208190555050806001019050612c26565b503373ffffffffffffffffffffffffffffffffffffffff167f42c9d9d3f1e92e0fa6acf10de4bc086be0aded74e8c0f091c5142d5677842b6687878685868a612cba9190614adb565b604051612ccb9594939291906157d8565b60405180910390a250505050612cdf61352d565b5050565b7f000000000000000000000000000000000000000000000000000000000000000081565b7f000000000000000000000000000000000000000000000000000000000000000081565b7f000000000000000000000000000000000000000000000000000000000000000081565b606060018054612d5e90614988565b80601f0160208091040260200160405190810160405280929190818152602001828054612d8a90614988565b8015612dd55780601f10612dac57610100808354040283529160200191612dd5565b820191905f5260205f20905b815481529060010190602001808311612db857829003601f168201915b5050505050905090565b612df1612dea6133cf565b8383613554565b5050565b60075f9054906101000a900473ffffffffffffffffffffffffffffffffffffffff1673ffffffffffffffffffffffffffffffffffffffff163373ffffffffffffffffffffffffffffffffffffffff1614612e84576040517f08c379a0000000000000000000000000000000000000000000000000000000008152600401612e7b90614a28565b60405180910390fd5b5f73ffffffffffffffffffffffffffffffffffffffff168173ffffffffffffffffffffffffffffffffffffffff1603612ef2576040517f08c379a0000000000000000000000000000000000000000000000000000000008152600401612ee990614a90565b60405180910390fd5b8060075f6101000a81548173ffffffffffffffffffffffffffffffffffffffff021916908373ffffffffffffffffffffffffffffffffffffffff1602179055503373ffffffffffffffffffffffffffffffffffffffff168173ffffffffffffffffffffffffffffffffffffffff167f101b8081ff3b56bbf45deb824d86a3b0fd38b7e3dd42421105cf8abe9106db0b60405160405180910390a350565b6301e13380600c5f8481526020019081526020015f2054612fb09190614b0e565b421015612ff2576040517f08c379a0000000000000000000000000000000000000000000000000000000008152600401612fe990614b8b565b60405180910390fd5b612ffe848484846136bd565b50505050565b5f600115157f000000000000000000000000000000000000000000000000000000000000000073ffffffffffffffffffffffffffffffffffffffff166368c4ac26846040518263ffffffff1660e01b815260040161306291906143c6565b602060405180830381865afa15801561307d573d5f5f3e3d5ffd5b505050506040513d601f19601f820116820180604052508101906130a19190614cf4565b1515146130e3576040517f08c379a00000000000000000000000000000000000000000000000000000000081526004016130da90614d69565b60405180910390fd5b8173ffffffffffffffffffffffffffffffffffffffff166370a08231306040518263ffffffff1660e01b815260040161311c91906143c6565b602060405180830381865afa158015613137573d5f5f3e3d5ffd5b505050506040513d601f19601f8201168201806040525081019061315b9190614d9b565b9050919050565b606061316d82613310565b505f6131776136e2565b90505f8151116131955760405180602001604052805f8152506131c0565b8061319f84613772565b6040516020016131b09291906158a3565b6040516020818303038152906040525b915050919050565b60085f9054906101000a900473ffffffffffffffffffffffffffffffffffffffff1681565b5f47905090565b5f60055f8473ffffffffffffffffffffffffffffffffffffffff1673ffffffffffffffffffffffffffffffffffffffff1681526020019081526020015f205f8373ffffffffffffffffffffffffffffffffffffffff1673ffffffffffffffffffffffffffffffffffffffff1681526020019081526020015f205f9054906101000a900460ff16905092915050565b60075f9054906101000a900473ffffffffffffffffffffffffffffffffffffffff1681565b5f7f01ffc9a7000000000000000000000000000000000000000000000000000000007bffffffffffffffffffffffffffffffffffffffffffffffffffffffff1916827bffffffffffffffffffffffffffffffffffffffffffffffffffffffff1916149050919050565b5f5f61331b8361383c565b90505f73ffffffffffffffffffffffffffffffffffffffff168173ffffffffffffffffffffffffffffffffffffffff160361338d57826040517f7e2732890000000000000000000000000000000000000000000000000000000081526004016133849190614481565b60405180910390fd5b80915050919050565b5f60045f8381526020019081526020015f205f9054906101000a900473ffffffffffffffffffffffffffffffffffffffff169050919050565b5f33905090565b6133e38383836001613875565b505050565b5f73ffffffffffffffffffffffffffffffffffffffff168273ffffffffffffffffffffffffffffffffffffffff1603613458575f6040517f64a0ae9200000000000000000000000000000000000000000000000000000000815260040161344f91906143c6565b60405180910390fd5b5f61346b83836134666133cf565b613a34565b90508373ffffffffffffffffffffffffffffffffffffffff168173ffffffffffffffffffffffffffffffffffffffff16146134e1578382826040517f64283d7b0000000000000000000000000000000000000000000000000000000081526004016134d8939291906158d5565b60405180910390fd5b50505050565b600260065403613523576040517f3ee5aeb500000000000000000000000000000000000000000000000000000000815260040160405180910390fd5b6002600681905550565b6001600681905550565b613550828260405180602001604052805f815250613c3f565b5050565b5f73ffffffffffffffffffffffffffffffffffffffff168273ffffffffffffffffffffffffffffffffffffffff16036135c457816040517f5b08ba180000000000000000000000000000000000000000000000000000000081526004016135bb91906143c6565b60405180910390fd5b8060055f8573ffffffffffffffffffffffffffffffffffffffff1673ffffffffffffffffffffffffffffffffffffffff1681526020019081526020015f205f8473ffffffffffffffffffffffffffffffffffffffff1673ffffffffffffffffffffffffffffffffffffffff1681526020019081526020015f205f6101000a81548160ff0219169083151502179055508173ffffffffffffffffffffffffffffffffffffffff168373ffffffffffffffffffffffffffffffffffffffff167f17307eab39ab6107e8899845ad3d59bd9653f200f220920489ca2b5937696c31836040516136b09190614280565b60405180910390a3505050565b6136c8848484610ba4565b6136dc6136d36133cf565b85858585613c62565b50505050565b6060600a80546136f190614988565b80601f016020809104026020016040519081016040528092919081815260200182805461371d90614988565b80156137685780601f1061373f57610100808354040283529160200191613768565b820191905f5260205f20905b81548152906001019060200180831161374b57829003601f168201915b5050505050905090565b60605f600161378084613e0e565b0190505f8167ffffffffffffffff81111561379e5761379d6144f2565b5b6040519080825280601f01601f1916602001820160405280156137d05781602001600182028036833780820191505090505b5090505f82602001820190505b600115613831578080600190039150507f3031323334353637383961626364656600000000000000000000000000000000600a86061a8153600a858161382657613825615194565b5b0494505f85036137dd575b819350505050919050565b5f60025f8381526020019081526020015f205f9054906101000a900473ffffffffffffffffffffffffffffffffffffffff169050919050565b80806138ad57505f73ffffffffffffffffffffffffffffffffffffffff168273ffffffffffffffffffffffffffffffffffffffff1614155b156139df575f6138bc84613310565b90505f73ffffffffffffffffffffffffffffffffffffffff168373ffffffffffffffffffffffffffffffffffffffff161415801561392657508273ffffffffffffffffffffffffffffffffffffffff168173ffffffffffffffffffffffffffffffffffffffff1614155b8015613939575061393781846131f4565b155b1561397b57826040517fa9fbf51f00000000000000000000000000000000000000000000000000000000815260040161397291906143c6565b60405180910390fd5b81156139dd57838573ffffffffffffffffffffffffffffffffffffffff168273ffffffffffffffffffffffffffffffffffffffff167f8c5be1e5ebec7d5bd14f71427d1e84f3dd0314c0f7b2291e5b200ac8c7c3b92560405160405180910390a45b505b8360045f8581526020019081526020015f205f6101000a81548173ffffffffffffffffffffffffffffffffffffffff021916908373ffffffffffffffffffffffffffffffffffffffff16021790555050505050565b5f5f613a3f8461383c565b90505f73ffffffffffffffffffffffffffffffffffffffff168373ffffffffffffffffffffffffffffffffffffffff1614613a8057613a7f818486613f5f565b5b5f73ffffffffffffffffffffffffffffffffffffffff168173ffffffffffffffffffffffffffffffffffffffff1614613b0b57613abf5f855f5f613875565b600160035f8373ffffffffffffffffffffffffffffffffffffffff1673ffffffffffffffffffffffffffffffffffffffff1681526020019081526020015f205f82825403925050819055505b5f73ffffffffffffffffffffffffffffffffffffffff168573ffffffffffffffffffffffffffffffffffffffff1614613b8a57600160035f8773ffffffffffffffffffffffffffffffffffffffff1673ffffffffffffffffffffffffffffffffffffffff1681526020019081526020015f205f82825401925050819055505b8460025f8681526020019081526020015f205f6101000a81548173ffffffffffffffffffffffffffffffffffffffff021916908373ffffffffffffffffffffffffffffffffffffffff160217905550838573ffffffffffffffffffffffffffffffffffffffff168273ffffffffffffffffffffffffffffffffffffffff167fddf252ad1be2c89b69c2b068fc378daa952ba7f163c4a11628f55a4df523b3ef60405160405180910390a4809150509392505050565b613c498383614022565b613c5d613c546133cf565b5f858585613c62565b505050565b5f8373ffffffffffffffffffffffffffffffffffffffff163b1115613e07578273ffffffffffffffffffffffffffffffffffffffff1663150b7a02868685856040518563ffffffff1660e01b8152600401613cc0949392919061595c565b6020604051808303815f875af1925050508015613cfb57506040513d601f19601f82011682018060405250810190613cf891906159ba565b60015b613d7c573d805f8114613d29576040519150601f19603f3d011682016040523d82523d5f602084013e613d2e565b606091505b505f815103613d7457836040517f64a0ae92000000000000000000000000000000000000000000000000000000008152600401613d6b91906143c6565b60405180910390fd5b805181602001fd5b63150b7a0260e01b7bffffffffffffffffffffffffffffffffffffffffffffffffffffffff1916817bffffffffffffffffffffffffffffffffffffffffffffffffffffffff191614613e0557836040517f64a0ae92000000000000000000000000000000000000000000000000000000008152600401613dfc91906143c6565b60405180910390fd5b505b5050505050565b5f5f5f90507a184f03e93ff9f4daa797ed6e38ed64bf6a1f0100000000000000008310613e6a577a184f03e93ff9f4daa797ed6e38ed64bf6a1f0100000000000000008381613e6057613e5f615194565b5b0492506040810190505b6d04ee2d6d415b85acef81000000008310613ea7576d04ee2d6d415b85acef81000000008381613e9d57613e9c615194565b5b0492506020810190505b662386f26fc100008310613ed657662386f26fc100008381613ecc57613ecb615194565b5b0492506010810190505b6305f5e1008310613eff576305f5e1008381613ef557613ef4615194565b5b0492506008810190505b6127108310613f24576127108381613f1a57613f19615194565b5b0492506004810190505b60648310613f475760648381613f3d57613f3c615194565b5b0492506002810190505b600a8310613f56576001810190505b80915050919050565b613f6a838383614115565b61401d575f73ffffffffffffffffffffffffffffffffffffffff168373ffffffffffffffffffffffffffffffffffffffff1603613fde57806040517f7e273289000000000000000000000000000000000000000000000000000000008152600401613fd59190614481565b60405180910390fd5b81816040517f177e802f000000000000000000000000000000000000000000000000000000008152600401614014929190614e2e565b60405180910390fd5b505050565b5f73ffffffffffffffffffffffffffffffffffffffff168273ffffffffffffffffffffffffffffffffffffffff1603614092575f6040517f64a0ae9200000000000000000000000000000000000000000000000000000000815260040161408991906143c6565b60405180910390fd5b5f61409e83835f613a34565b90505f73ffffffffffffffffffffffffffffffffffffffff168173ffffffffffffffffffffffffffffffffffffffff1614614110575f6040517f73c6ac6e00000000000000000000000000000000000000000000000000000000815260040161410791906143c6565b60405180910390fd5b505050565b5f5f73ffffffffffffffffffffffffffffffffffffffff168373ffffffffffffffffffffffffffffffffffffffff16141580156141cc57508273ffffffffffffffffffffffffffffffffffffffff168473ffffffffffffffffffffffffffffffffffffffff16148061418d575061418c84846131f4565b5b806141cb57508273ffffffffffffffffffffffffffffffffffffffff166141b383613396565b73ffffffffffffffffffffffffffffffffffffffff16145b5b90509392505050565b5f604051905090565b5f5ffd5b5f5ffd5b5f7fffffffff0000000000000000000000000000000000000000000000000000000082169050919050565b61421a816141e6565b8114614224575f5ffd5b50565b5f8135905061423581614211565b92915050565b5f602082840312156142505761424f6141de565b5b5f61425d84828501614227565b91505092915050565b5f8115159050919050565b61427a81614266565b82525050565b5f6020820190506142935f830184614271565b92915050565b5f81519050919050565b5f82825260208201905092915050565b8281835e5f83830152505050565b5f601f19601f8301169050919050565b5f6142db82614299565b6142e581856142a3565b93506142f58185602086016142b3565b6142fe816142c1565b840191505092915050565b5f6020820190508181035f83015261432181846142d1565b905092915050565b5f819050919050565b61433b81614329565b8114614345575f5ffd5b50565b5f8135905061435681614332565b92915050565b5f60208284031215614371576143706141de565b5b5f61437e84828501614348565b91505092915050565b5f73ffffffffffffffffffffffffffffffffffffffff82169050919050565b5f6143b082614387565b9050919050565b6143c0816143a6565b82525050565b5f6020820190506143d95f8301846143b7565b92915050565b6143e8816143a6565b81146143f2575f5ffd5b50565b5f81359050614403816143df565b92915050565b5f5f6040838503121561441f5761441e6141de565b5b5f61442c858286016143f5565b925050602061443d85828601614348565b9150509250929050565b5f6020828403121561445c5761445b6141de565b5b5f614469848285016143f5565b91505092915050565b61447b81614329565b82525050565b5f6020820190506144945f830184614472565b92915050565b5f5f5f606084860312156144b1576144b06141de565b5b5f6144be868287016143f5565b93505060206144cf868287016143f5565b92505060406144e086828701614348565b9150509250925092565b5f5ffd5b5f5ffd5b7f4e487b71000000000000000000000000000000000000000000000000000000005f52604160045260245ffd5b614528826142c1565b810181811067ffffffffffffffff82111715614547576145466144f2565b5b80604052505050565b5f6145596141d5565b9050614565828261451f565b919050565b5f67ffffffffffffffff821115614584576145836144f2565b5b61458d826142c1565b9050602081019050919050565b828183375f83830152505050565b5f6145ba6145b58461456a565b614550565b9050828152602081018484840111156145d6576145d56144ee565b5b6145e184828561459a565b509392505050565b5f82601f8301126145fd576145fc6144ea565b5b813561460d8482602086016145a8565b91505092915050565b5f5f5f6060848603121561462d5761462c6141de565b5b5f61463a868287016143f5565b935050602061464b86828701614348565b925050604084013567ffffffffffffffff81111561466c5761466b6141e2565b5b614678868287016145e9565b9150509250925092565b5f60208284031215614697576146966141de565b5b5f82013567ffffffffffffffff8111156146b4576146b36141e2565b5b6146c0848285016145e9565b91505092915050565b5f5f604083850312156146df576146de6141de565b5b5f6146ec85828601614348565b925050602083013567ffffffffffffffff81111561470d5761470c6141e2565b5b614719858286016145e9565b9150509250929050565b5f819050919050565b5f61474661474161473c84614387565b614723565b614387565b9050919050565b5f6147578261472c565b9050919050565b5f6147688261474d565b9050919050565b6147788161475e565b82525050565b5f6020820190506147915f83018461476f565b92915050565b6147a081614266565b81146147aa575f5ffd5b50565b5f813590506147bb81614797565b92915050565b5f5f604083850312156147d7576147d66141de565b5b5f6147e4858286016143f5565b92505060206147f5858286016147ad565b9150509250929050565b5f67ffffffffffffffff821115614819576148186144f2565b5b614822826142c1565b9050602081019050919050565b5f61484161483c846147ff565b614550565b90508281526020810184848401111561485d5761485c6144ee565b5b61486884828561459a565b509392505050565b5f82601f830112614884576148836144ea565b5b813561489484826020860161482f565b91505092915050565b5f5f5f5f608085870312156148b5576148b46141de565b5b5f6148c2878288016143f5565b94505060206148d3878288016143f5565b93505060406148e487828801614348565b925050606085013567ffffffffffffffff811115614905576149046141e2565b5b61491187828801614870565b91505092959194509250565b5f5f60408385031215614933576149326141de565b5b5f614940858286016143f5565b9250506020614951858286016143f5565b9150509250929050565b7f4e487b71000000000000000000000000000000000000000000000000000000005f52602260045260245ffd5b5f600282049050600182168061499f57607f821691505b6020821081036149b2576149b161495b565b5b50919050565b7f556e617574686f72697a656421204f6e6c792061646d696e2063616e207065725f8201527f666f726d2074686973206f7065726174696f6e00000000000000000000000000602082015250565b5f614a126033836142a3565b9150614a1d826149b8565b604082019050919050565b5f6020820190508181035f830152614a3f81614a06565b9050919050565b7f4e6f7420612076616c69642061646472657373000000000000000000000000005f82015250565b5f614a7a6013836142a3565b9150614a8582614a46565b602082019050919050565b5f6020820190508181035f830152614aa781614a6e565b9050919050565b7f4e487b71000000000000000000000000000000000000000000000000000000005f52601160045260245ffd5b5f614ae582614329565b9150614af083614329565b9250828203905081811115614b0857614b07614aae565b5b92915050565b5f614b1882614329565b9150614b2383614329565b9250828201905080821115614b3b57614b3a614aae565b5b92915050565b7f4e4654206c6f636b656420666f72203132206d6f6e74687300000000000000005f82015250565b5f614b756018836142a3565b9150614b8082614b41565b602082019050919050565b5f6020820190508181035f830152614ba281614b69565b9050919050565b7f4e6f2045544820746f20776974686472617700000000000000000000000000005f82015250565b5f614bdd6012836142a3565b9150614be882614ba9565b602082019050919050565b5f6020820190508181035f830152614c0a81614bd1565b9050919050565b5f81905092915050565b50565b5f614c295f83614c11565b9150614c3482614c1b565b5f82019050919050565b5f614c4882614c1e565b9150819050919050565b7f455448207472616e7366657220746f207061796d656e745265636569766572205f8201527f6661696c65640000000000000000000000000000000000000000000000000000602082015250565b5f614cac6026836142a3565b9150614cb782614c52565b604082019050919050565b5f6020820190508181035f830152614cd981614ca0565b9050919050565b5f81519050614cee81614797565b92915050565b5f60208284031215614d0957614d086141de565b5b5f614d1684828501614ce0565b91505092915050565b7f556e737570706f7274656420746f6b656e0000000000000000000000000000005f82015250565b5f614d536011836142a3565b9150614d5e82614d1f565b602082019050919050565b5f6020820190508181035f830152614d8081614d47565b9050919050565b5f81519050614d9581614332565b92915050565b5f60208284031215614db057614daf6141de565b5b5f614dbd84828501614d87565b91505092915050565b7f4e6f20746f6b656e7320746f20776974686472617700000000000000000000005f82015250565b5f614dfa6015836142a3565b9150614e0582614dc6565b602082019050919050565b5f6020820190508181035f830152614e2781614dee565b9050919050565b5f604082019050614e415f8301856143b7565b614e4e6020830184614472565b9392505050565b7f546f6b656e207472616e73666572206661696c656420666f72207061796d656e5f8201527f7452656365697665720000000000000000000000000000000000000000000000602082015250565b5f614eaf6029836142a3565b9150614eba82614e55565b604082019050919050565b5f6020820190508181035f830152614edc81614ea3565b9050919050565b7f5175616e746974792069732030000000000000000000000000000000000000005f82015250565b5f614f17600d836142a3565b9150614f2282614ee3565b602082019050919050565b5f6020820190508181035f830152614f4481614f0b565b9050919050565b7f4c696d69742065786365656465640000000000000000000000000000000000005f82015250565b5f614f7f600e836142a3565b9150614f8a82614f4b565b602082019050919050565b5f6020820190508181035f830152614fac81614f73565b9050919050565b7f4c696d69742065786861757374656400000000000000000000000000000000005f82015250565b5f614fe7600f836142a3565b9150614ff282614fb3565b602082019050919050565b5f6020820190508181035f83015261501481614fdb565b9050919050565b7f426c61636b6c69737465642055736572000000000000000000000000000000005f82015250565b5f61504f6010836142a3565b915061505a8261501b565b602082019050919050565b5f6020820190508181035f83015261507c81615043565b9050919050565b7f55736572206b7963206973206e6f742076616c696400000000000000000000005f82015250565b5f6150b76015836142a3565b91506150c282615083565b602082019050919050565b5f6020820190508181035f8301526150e4816150ab565b9050919050565b5f6150f582614329565b915061510083614329565b925082820261510e81614329565b9150828204841483151761512557615124614aae565b5b5092915050565b7f526566657272616c20436f6465206973206e6f742061637469766500000000005f82015250565b5f615160601b836142a3565b915061516b8261512c565b602082019050919050565b5f6020820190508181035f83015261518d81615154565b9050919050565b7f4e487b71000000000000000000000000000000000000000000000000000000005f52601260045260245ffd5b5f6151cb82614329565b91506151d683614329565b9250826151e6576151e5615194565b5b828204905092915050565b5f6040820190506152045f8301856143b7565b61521160208301846143b7565b9392505050565b7f496e73756666696369656e7420746f6b656e20616c6c6f77616e6365000000005f82015250565b5f61524c601c836142a3565b915061525782615218565b602082019050919050565b5f6020820190508181035f83015261527981615240565b9050919050565b5f6060820190506152935f8301866143b7565b6152a060208301856143b7565b6152ad6040830184614472565b949350505050565b7f546f6b656e207472616e73666572206661696c656400000000000000000000005f82015250565b5f6152e96015836142a3565b91506152f4826152b5565b602082019050919050565b5f6020820190508181035f830152615316816152dd565b9050919050565b5f8151905061532b816143df565b92915050565b5f60208284031215615346576153456141de565b5b5f6153538482850161531d565b91505092915050565b5f61536682614329565b91507fffffffffffffffffffffffffffffffffffffffffffffffffffffffffffffffff820361539857615397614aae565b5b600182019050919050565b7f555344432f5553445400000000000000000000000000000000000000000000005f82015250565b5f6153d76009836142a3565b91506153e2826153a3565b602082019050919050565b5f60c0820190506154005f830188614472565b8181036020830152615411816153cb565b9050818103604083015261542581876142d1565b90506154346060830186614472565b6154416080830185614472565b61544e60a0830184614472565b9695505050505050565b5f819050815f5260205f209050919050565b5f6020601f8301049050919050565b5f82821b905092915050565b5f600883026154b47fffffffffffffffffffffffffffffffffffffffffffffffffffffffffffffffff82615479565b6154be8683615479565b95508019841693508086168417925050509392505050565b5f6154f06154eb6154e684614329565b614723565b614329565b9050919050565b5f819050919050565b615509836154d6565b61551d615515826154f7565b848454615485565b825550505050565b5f5f905090565b615534615525565b61553f818484615500565b505050565b5b81811015615562576155575f8261552c565b600181019050615545565b5050565b601f8211156155a75761557881615458565b6155818461546a565b81016020851015615590578190505b6155a461559c8561546a565b830182615544565b50505b505050565b5f82821c905092915050565b5f6155c75f19846008026155ac565b1980831691505092915050565b5f6155df83836155b8565b9150826002028217905092915050565b6155f882614299565b67ffffffffffffffff811115615611576156106144f2565b5b61561b8254614988565b615626828285615566565b5f60209050601f831160018114615657575f8415615645578287015190505b61564f85826155d4565b8655506156b6565b601f19841661566586615458565b5f5b8281101561568c57848901518255600182019150602085019450602081019050615667565b868310156156a957848901516156a5601f8916826155b8565b8355505b6001600288020188555050505b505050505050565b7f496e73756666696369656e7420455448000000000000000000000000000000005f82015250565b5f6156f26010836142a3565b91506156fd826156be565b602082019050919050565b5f6020820190508181035f83015261571f816156e6565b9050919050565b7f455448207472616e73666572206661696c6564000000000000000000000000005f82015250565b5f61575a6013836142a3565b915061576582615726565b602082019050919050565b5f6020820190508181035f8301526157878161574e565b9050919050565b7f45544800000000000000000000000000000000000000000000000000000000005f82015250565b5f6157c26003836142a3565b91506157cd8261578e565b602082019050919050565b5f60c0820190506157eb5f830188614472565b81810360208301526157fc816157b6565b9050818103604083015261581081876142d1565b905061581f6060830186614472565b61582c6080830185614472565b61583960a0830184614472565b9695505050505050565b5f81905092915050565b5f61585782614299565b6158618185615843565b93506158718185602086016142b3565b80840191505092915050565b7f2e6a736f6e000000000000000000000000000000000000000000000000000000815250565b5f6158ae828561584d565b91506158ba828461584d565b91506158c58261587d565b6005820191508190509392505050565b5f6060820190506158e85f8301866143b7565b6158f56020830185614472565b61590260408301846143b7565b949350505050565b5f81519050919050565b5f82825260208201905092915050565b5f61592e8261590a565b6159388185615914565b93506159488185602086016142b3565b615951816142c1565b840191505092915050565b5f60808201905061596f5f8301876143b7565b61597c60208301866143b7565b6159896040830185614472565b818103606083015261599b8184615924565b905095945050505050565b5f815190506159b481614211565b92915050565b5f602082840312156159cf576159ce6141de565b5b5f6159dc848285016159a6565b9150509291505056fea2646970667358221220a85a6e58a1fc6fde45dca39925a0181f56405b00727b9e3227ccc8689edc7ae164736f6c634300081c0033","linkReferences":{}},"methodIdentifiers":{"LOCK_PERIOD()":"1820cabb","_nextTokenId()":"4a60f620","admin()":"f851a440","approve(address,uint256)":"095ea7b3","autheoCentralStore()":"8893d9de","availableNodes()":"204401e7","balanceOf(address)":"70a08231","balanceOfContract()":"e6c7c456","getApproved(uint256)":"081812fc","isApprovedForAll(address,address)":"e985e9c5","mint(uint256,string)":"77097fc8","mintWithUSDCOrUSDT(address,uint256,string)":"54185e81","name()":"06fdde03","nodePriceInUSD()":"928210fc","ownerOf(uint256)":"6352211e","paymentReceiver()":"cb37f3b2","safeTransferFrom(address,address,uint256)":"42842e0e","safeTransferFrom(address,address,uint256,bytes)":"b88d4fde","setApprovalForAll(address,bool)":"a22cb465","setBaseURI(string)":"55f804b3","supportsInterface(bytes4)":"01ffc9a7","symbol()":"95d89b41","tier()":"16f4d022","tokenBalanceOfContract(address)":"bb1accd7","tokenMintTimestamp(uint256)":"3b9af5e9","tokenURI(uint256)":"c87b56dd","totalNodes()":"9592d424","transferAdminRole(address)":"ada8f919","transferFrom(address,address,uint256)":"23b872dd","updatePaymentReceiver(address)":"0bdfe46c","withdraw()":"3ccfd60b","withdrawTokens(address)":"49df728c"},"id":3}