{"abi":[{"type":"constructor","inputs":[],"stateMutability":"nonpayable"},{"type":"function","name":"UPGRADE_INTERFACE_VERSION","inputs":[],"outputs":[{"name":"","type":"string","internalType":"string"}],"stateMutability":"view"},{"type":"function","name":"addInternalAccounts","inputs":[{"name":"accounts","type":"address[]","internalType":"address[]"}],"outputs":[],"stateMutability":"nonpayable"},{"type":"function","name":"addressToReferralCode","inputs":[{"name":"","type":"address","internalType":"address"}],"outputs":[{"name":"","type":"string","internalType":"string"}],"stateMutability":"view"},{"type":"function","name":"ethUsdPriceFeed","inputs":[],"outputs":[{"name":"","type":"address","internalType":"contract AggregatorV3Interface"}],"stateMutability":"view"},{"type":"function","name":"generateReferralCode","inputs":[{"name":"referralCode","type":"string","internalType":"string"}],"outputs":[],"stateMutability":"nonpayable"},{"type":"function","name":"getContractVersion","inputs":[],"outputs":[{"name":"","type":"string","internalType":"string"}],"stateMutability":"pure"},{"type":"function","name":"getLatestEthPriceInUsd","inputs":[],"outputs":[{"name":"","type":"int256","internalType":"int256"}],"stateMutability":"view"},{"type":"function","name":"getUsdPriceInEth","inputs":[],"outputs":[{"name":"","type":"uint256","internalType":"uint256"}],"stateMutability":"view"},{"type":"function","name":"initialize","inputs":[{"name":"_ethUsdPriceFeed","type":"address","internalType":"address"},{"name":"_usdtContractAddress","type":"address","internalType":"address"},{"name":"_usdcContractAddress","type":"address","internalType":"address"},{"name":"_referredCommisionPercentage","type":"uint256","internalType":"uint256"},{"name":"_referrerCommissionPercentage","type":"uint256","internalType":"uint256"},{"name":"_perUserCap","type":"uint256","internalType":"uint256"},{"name":"_internalWalletMaxHoldings","type":"uint256","internalType":"uint256"}],"outputs":[],"stateMutability":"nonpayable"},{"type":"function","name":"internalAccounts","inputs":[{"name":"","type":"address","internalType":"address"}],"outputs":[{"name":"","type":"bool","internalType":"bool"}],"stateMutability":"view"},{"type":"function","name":"internalWalletMaxHoldings","inputs":[],"outputs":[{"name":"","type":"uint256","internalType":"uint256"}],"stateMutability":"view"},{"type":"function","name":"isActiveReferral","inputs":[{"name":"","type":"string","internalType":"string"}],"outputs":[{"name":"","type":"bool","internalType":"bool"}],"stateMutability":"view"},{"type":"function","name":"isAdmin","inputs":[{"name":"","type":"address","internalType":"address"}],"outputs":[{"name":"","type":"bool","internalType":"bool"}],"stateMutability":"view"},{"type":"function","name":"isBlackListed","inputs":[{"name":"","type":"address","internalType":"address"}],"outputs":[{"name":"","type":"bool","internalType":"bool"}],"stateMutability":"view"},{"type":"function","name":"isContract","inputs":[{"name":"_addr","type":"address","internalType":"address"}],"outputs":[{"name":"","type":"bool","internalType":"bool"}],"stateMutability":"view"},{"type":"function","name":"isKYC","inputs":[{"name":"","type":"address","internalType":"address"}],"outputs":[{"name":"","type":"bool","internalType":"bool"}],"stateMutability":"view"},{"type":"function","name":"perUserCap","inputs":[],"outputs":[{"name":"","type":"uint256","internalType":"uint256"}],"stateMutability":"view"},{"type":"function","name":"proxiableUUID","inputs":[],"outputs":[{"name":"","type":"bytes32","internalType":"bytes32"}],"stateMutability":"view"},{"type":"function","name":"referralCodeToAddress","inputs":[{"name":"","type":"string","internalType":"string"}],"outputs":[{"name":"","type":"address","internalType":"address"}],"stateMutability":"view"},{"type":"function","name":"referredCommissionPercentage","inputs":[],"outputs":[{"name":"","type":"uint256","internalType":"uint256"}],"stateMutability":"view"},{"type":"function","name":"referrerCommissionPercentage","inputs":[],"outputs":[{"name":"","type":"uint256","internalType":"uint256"}],"stateMutability":"view"},{"type":"function","name":"removeInternalAccounts","inputs":[{"name":"accounts","type":"address[]","internalType":"address[]"}],"outputs":[],"stateMutability":"nonpayable"},{"type":"function","name":"removeWhitelistedContract","inputs":[{"name":"contractAddresses","type":"address[]","internalType":"address[]"}],"outputs":[],"stateMutability":"nonpayable"},{"type":"function","name":"superAdmin","inputs":[],"outputs":[{"name":"","type":"address","internalType":"address"}],"stateMutability":"view"},{"type":"function","name":"supportedTokens","inputs":[{"name":"","type":"address","internalType":"address"}],"outputs":[{"name":"","type":"bool","internalType":"bool"}],"stateMutability":"view"},{"type":"function","name":"transferSuperAdmin","inputs":[{"name":"newSuperAdmin","type":"address","internalType":"address"}],"outputs":[],"stateMutability":"nonpayable"},{"type":"function","name":"updateAdminRole","inputs":[{"name":"admin","type":"address","internalType":"address"},{"name":"status","type":"bool","internalType":"bool"}],"outputs":[],"stateMutability":"nonpayable"},{"type":"function","name":"updateBlackListUser","inputs":[{"name":"userAddress","type":"address","internalType":"address"},{"name":"status","type":"bool","internalType":"bool"}],"outputs":[],"stateMutability":"nonpayable"},{"type":"function","name":"updateHoldings","inputs":[{"name":"user","type":"address","internalType":"address"},{"name":"quantity","type":"uint256","internalType":"uint256"}],"outputs":[],"stateMutability":"nonpayable"},{"type":"function","name":"updateInternalWalletMaxHoldings","inputs":[{"name":"newLimit","type":"uint256","internalType":"uint256"}],"outputs":[],"stateMutability":"nonpayable"},{"type":"function","name":"updateKYCStatus","inputs":[{"name":"userAddress","type":"address","internalType":"address"},{"name":"status","type":"bool","internalType":"bool"}],"outputs":[],"stateMutability":"nonpayable"},{"type":"function","name":"updateReferredCommissionPercentage","inputs":[{"name":"newReferredCommissionPercentage","type":"uint256","internalType":"uint256"}],"outputs":[],"stateMutability":"nonpayable"},{"type":"function","name":"updateReferrerCommisionPercentage","inputs":[{"name":"newReferrerCommisionPercentage","type":"uint256","internalType":"uint256"}],"outputs":[],"stateMutability":"nonpayable"},{"type":"function","name":"updateUserReferralActiveness","inputs":[{"name":"referralCode","type":"string","internalType":"string"},{"name":"isActive","type":"bool","internalType":"bool"}],"outputs":[],"stateMutability":"nonpayable"},{"type":"function","name":"upgradeToAndCall","inputs":[{"name":"newImplementation","type":"address","internalType":"address"},{"name":"data","type":"bytes","internalType":"bytes"}],"outputs":[],"stateMutability":"payable"},{"type":"function","name":"userHoldings","inputs":[{"name":"","type":"address","internalType":"address"}],"outputs":[{"name":"","type":"uint256","internalType":"uint256"}],"stateMutability":"view"},{"type":"function","name":"whitelistContract","inputs":[{"name":"contractAddresses","type":"address[]","internalType":"address[]"}],"outputs":[],"stateMutability":"nonpayable"},{"type":"function","name":"whitelistedTierContracts","inputs":[{"name":"","type":"address","internalType":"address"}],"outputs":[{"name":"","type":"bool","internalType":"bool"}],"stateMutability":"view"},{"type":"event","name":"AdminUpdated","inputs":[{"name":"admin","type":"address","indexed":true,"internalType":"address"},{"name":"isAdmin","type":"bool","indexed":false,"internalType":"bool"}],"anonymous":false},{"type":"event","name":"ContractRemovedFromWhitelist","inputs":[{"name":"contractAddress","type":"address","indexed":true,"internalType":"address"}],"anonymous":false},{"type":"event","name":"ContractWhitelisted","inputs":[{"name":"contractAddress","type":"address","indexed":true,"internalType":"address"}],"anonymous":false},{"type":"event","name":"Initialized","inputs":[{"name":"version","type":"uint64","indexed":false,"internalType":"uint64"}],"anonymous":false},{"type":"event","name":"InternalAccountsUpdate","inputs":[{"name":"account","type":"address","indexed":true,"internalType":"address"},{"name":"status","type":"bool","indexed":false,"internalType":"bool"}],"anonymous":false},{"type":"event","name":"ReferralCodeActivenessUpdated","inputs":[{"name":"referralCode","type":"string","indexed":false,"internalType":"string"},{"name":"isActive","type":"bool","indexed":false,"internalType":"bool"}],"anonymous":false},{"type":"event","name":"ReferralCodeGenerated","inputs":[{"name":"user","type":"address","indexed":true,"internalType":"address"},{"name":"referralCode","type":"string","indexed":false,"internalType":"string"}],"anonymous":false},{"type":"event","name":"ReferredCommissionPercentageUpdated","inputs":[{"name":"newReferredCommissionPercentage","type":"uint256","indexed":false,"internalType":"uint256"}],"anonymous":false},{"type":"event","name":"ReferrerCommisionPercentageUpdated","inputs":[{"name":"newReferrerCommisionPercentage","type":"uint256","indexed":false,"internalType":"uint256"}],"anonymous":false},{"type":"event","name":"SuperAdminUpdated","inputs":[{"name":"newSuperAdmin","type":"address","indexed":true,"internalType":"address"},{"name":"oldSuperAdmin","type":"address","indexed":true,"internalType":"address"}],"anonymous":false},{"type":"event","name":"Upgraded","inputs":[{"name":"implementation","type":"address","indexed":true,"internalType":"address"}],"anonymous":false},{"type":"event","name":"UserBlacklistedStatusUpdate","inputs":[{"name":"user","type":"address","indexed":true,"internalType":"address"},{"name":"status","type":"bool","indexed":false,"internalType":"bool"}],"anonymous":false},{"type":"event","name":"UserKYCStatusUpdate","inputs":[{"name":"user","type":"address","indexed":true,"internalType":"address"},{"name":"status","type":"bool","indexed":false,"internalType":"bool"}],"anonymous":false},{"type":"error","name":"AddressEmptyCode","inputs":[{"name":"target","type":"address","internalType":"address"}]},{"type":"error","name":"ERC1967InvalidImplementation","inputs":[{"name":"implementation","type":"address","internalType":"address"}]},{"type":"error","name":"ERC1967NonPayable","inputs":[]},{"type":"error","name":"FailedCall","inputs":[]},{"type":"error","name":"InvalidInitialization","inputs":[]},{"type":"error","name":"NotInitializing","inputs":[]},{"type":"error","name":"UUPSUnauthorizedCallContext","inputs":[]},{"type":"error","name":"UUPSUnsupportedProxiableUUID","inputs":[{"name":"slot","type":"bytes32","internalType":"bytes32"}]}],"bytecode":{"object":"0x60a06040523073ffffffffffffffffffffffffffffffffffffffff1660809073ffffffffffffffffffffffffffffffffffffffff16815250348015610042575f5ffd5b5061005161005660201b60201c565b6101d1565b5f61006561015460201b60201c565b9050805f0160089054906101000a900460ff16156100af576040517ff92ee8a900000000000000000000000000000000000000000000000000000000815260040160405180910390fd5b67ffffffffffffffff8016815f015f9054906101000a900467ffffffffffffffff1667ffffffffffffffff16146101515767ffffffffffffffff815f015f6101000a81548167ffffffffffffffff021916908367ffffffffffffffff1602179055507fc7f505b2f371ae2175ee4913f4499e1f2633a7b5936321eed1cdaeb6115181d267ffffffffffffffff60405161014891906101b8565b60405180910390a15b50565b5f5f61016461016d60201b60201c565b90508091505090565b5f7ff0c57e16840df040f15088dc2f81fe391c3923bec73e23a9662efc9c229c6a005f1b905090565b5f67ffffffffffffffff82169050919050565b6101b281610196565b82525050565b5f6020820190506101cb5f8301846101a9565b92915050565b60805161455d6101f75f395f818161294b015281816129a00152612be1015261455d5ff3fe608060405260043610610224575f3560e01c80635dbb2c3c11610122578063ad3cb1cc116100aa578063e47d60601161006e578063e47d606014610822578063e789e6951461085e578063ea54ff0e14610886578063f84d7802146108ae578063fd2bd06a146108d657610224565b8063ad3cb1cc14610730578063adff92701461075a578063b868e7a114610782578063c2537372146107be578063d6f92372146107e657610224565b806384fc6de3116100f157806384fc6de31461063c5780638aa10435146106785780639944f518146106a25780639e7de2b1146106de578063a720b8af1461070857610224565b80635dbb2c3c1461055e57806368c4ac26146105885780637842a46b146105c4578063808d180b1461060057610224565b80632b4656c8116101b057806342f6fb291161017457806342f6fb291461048a5780634f1ef286146104b457806352328b6f146104d057806352d1902d1461050c57806353df9d761461053657610224565b80632b4656c8146103c25780632fe716f3146103ea5780633f463129146104125780633ffa28ec1461043a578063409c49d81461046257610224565b80631c8c8f04116101f75780631c8c8f04146102de5780631d18f00b1461030857806320ce3e271461033257806324d7806c1461035c57806329575f6a1461039857610224565b8063053f424d146102285780630c6dd9fd1461025257806311aa69c31461027a57806316279055146102a2575b5f5ffd5b348015610233575f5ffd5b5061023c6108fe565b60405161024991906130a9565b60405180910390f35b34801561025d575f5ffd5b506102786004803603810190610273919061312d565b610904565b005b348015610285575f5ffd5b506102a0600480360381019061029b9190613182565b610a9e565b005b3480156102ad575f5ffd5b506102c860048036038101906102c3919061312d565b610b6f565b6040516102d591906131c7565b60405180910390f35b3480156102e9575f5ffd5b506102f2610b86565b6040516102ff91906130a9565b60405180910390f35b348015610313575f5ffd5b5061031c610bf1565b60405161032991906130a9565b60405180910390f35b34801561033d575f5ffd5b50610346610bf7565b60405161035391906130a9565b60405180910390f35b348015610367575f5ffd5b50610382600480360381019061037d919061312d565b610bfd565b60405161038f91906131c7565b60405180910390f35b3480156103a3575f5ffd5b506103ac610c1a565b6040516103b991906131ef565b60405180910390f35b3480156103cd575f5ffd5b506103e860048036038101906103e39190613208565b610c3f565b005b3480156103f5575f5ffd5b50610410600480360381019061040b9190613182565b6110a9565b005b34801561041d575f5ffd5b5061043860048036038101906104339190613306565b61117a565b005b348015610445575f5ffd5b50610460600480360381019061045b9190613306565b61137b565b005b34801561046d575f5ffd5b5061048860048036038101906104839190613306565b61153e565b005b348015610495575f5ffd5b5061049e611703565b6040516104ab91906133ac565b60405180910390f35b6104ce60048036038101906104c991906134fd565b611727565b005b3480156104db575f5ffd5b506104f660048036038101906104f191906135f5565b611746565b60405161050391906131c7565b60405180910390f35b348015610517575f5ffd5b5061052061177b565b60405161052d9190613654565b60405180910390f35b348015610541575f5ffd5b5061055c60048036038101906105579190613697565b6117ac565b005b348015610569575f5ffd5b50610572611950565b60405161057f91906136ed565b60405180910390f35b348015610593575f5ffd5b506105ae60048036038101906105a9919061312d565b6119ec565b6040516105bb91906131c7565b60405180910390f35b3480156105cf575f5ffd5b506105ea60048036038101906105e5919061312d565b611a09565b6040516105f791906131c7565b60405180910390f35b34801561060b575f5ffd5b506106266004803603810190610621919061312d565b611a26565b60405161063391906131c7565b60405180910390f35b348015610647575f5ffd5b50610662600480360381019061065d919061312d565b611a43565b60405161066f91906130a9565b60405180910390f35b348015610683575f5ffd5b5061068c611a58565b6040516106999190613766565b60405180910390f35b3480156106ad575f5ffd5b506106c860048036038101906106c3919061312d565b611a95565b6040516106d591906131c7565b60405180910390f35b3480156106e9575f5ffd5b506106f2611ab2565b6040516106ff91906130a9565b60405180910390f35b348015610713575f5ffd5b5061072e60048036038101906107299190613786565b611ab8565b005b34801561073b575f5ffd5b50610744611c0d565b6040516107519190613766565b60405180910390f35b348015610765575f5ffd5b50610780600480360381019061077b9190613182565b611c46565b005b34801561078d575f5ffd5b506107a860048036038101906107a3919061312d565b611ce0565b6040516107b59190613766565b60405180910390f35b3480156107c9575f5ffd5b506107e460048036038101906107df9190613697565b611d7b565b005b3480156107f1575f5ffd5b5061080c600480360381019061080791906135f5565b611f1e565b60405161081991906131ef565b60405180910390f35b34801561082d575f5ffd5b506108486004803603810190610843919061312d565b611f66565b60405161085591906131c7565b60405180910390f35b348015610869575f5ffd5b50610884600480360381019061087f9190613306565b611f83565b005b348015610891575f5ffd5b506108ac60048036038101906108a79190613697565b6121c4565b005b3480156108b9575f5ffd5b506108d460048036038101906108cf91906135f5565b612368565b005b3480156108e1575f5ffd5b506108fc60048036038101906108f791906137c4565b61277f565b005b60075481565b60015f9054906101000a900473ffffffffffffffffffffffffffffffffffffffff1673ffffffffffffffffffffffffffffffffffffffff163373ffffffffffffffffffffffffffffffffffffffff1614610993576040517f08c379a000000000000000000000000000000000000000000000000000000000815260040161098a9061388e565b60405180910390fd5b5f73ffffffffffffffffffffffffffffffffffffffff168173ffffffffffffffffffffffffffffffffffffffff1603610a01576040517f08c379a00000000000000000000000000000000000000000000000000000000081526004016109f8906138f6565b60405180910390fd5b8060015f6101000a81548173ffffffffffffffffffffffffffffffffffffffff021916908373ffffffffffffffffffffffffffffffffffffffff1602179055503373ffffffffffffffffffffffffffffffffffffffff168173ffffffffffffffffffffffffffffffffffffffff167fd0f5553fb48dccd0de81c4705fa3feaf0b9a936a294741cfb724c33b8373f0c160405160405180910390a350565b6001151560025f3373ffffffffffffffffffffffffffffffffffffffff1673ffffffffffffffffffffffffffffffffffffffff1681526020019081526020015f205f9054906101000a900460ff16151514610b2e576040517f08c379a0000000000000000000000000000000000000000000000000000000008152600401610b2590613984565b60405180910390fd5b80600b819055507f87414516f885e9e285189238886efaa94535db7ff18f2af4ff2200d4d19e0c0381604051610b6491906130a9565b60405180910390a150565b5f5f823b90505f8163ffffffff1611915050919050565b5f5f610b90611950565b90505f8113610bd4576040517f08c379a0000000000000000000000000000000000000000000000000000000008152600401610bcb906139ec565b60405180910390fd5b806a52b7d2dcc80cd2e4000000610beb9190613a64565b91505090565b600b5481565b600f5481565b6002602052805f5260405f205f915054906101000a900460ff1681565b60015f9054906101000a900473ffffffffffffffffffffffffffffffffffffffff1681565b5f610c4861292c565b90505f815f0160089054906101000a900460ff161590505f825f015f9054906101000a900467ffffffffffffffff1690505f5f8267ffffffffffffffff16148015610c905750825b90505f60018367ffffffffffffffff16148015610cc357505f3073ffffffffffffffffffffffffffffffffffffffff163b145b905081158015610cd1575080155b15610d08576040517ff92ee8a900000000000000000000000000000000000000000000000000000000815260040160405180910390fd5b6001855f015f6101000a81548167ffffffffffffffff021916908367ffffffffffffffff1602179055508315610d55576001855f0160086101000a81548160ff0219169083151502179055505b610d5d61293f565b5f73ffffffffffffffffffffffffffffffffffffffff168c73ffffffffffffffffffffffffffffffffffffffff1603610dcb576040517f08c379a0000000000000000000000000000000000000000000000000000000008152600401610dc2906138f6565b60405180910390fd5b5f73ffffffffffffffffffffffffffffffffffffffff168b73ffffffffffffffffffffffffffffffffffffffff1603610e39576040517f08c379a0000000000000000000000000000000000000000000000000000000008152600401610e30906138f6565b60405180910390fd5b5f73ffffffffffffffffffffffffffffffffffffffff168a73ffffffffffffffffffffffffffffffffffffffff1603610ea7576040517f08c379a0000000000000000000000000000000000000000000000000000000008152600401610e9e906138f6565b60405180910390fd5b3360015f6101000a81548173ffffffffffffffffffffffffffffffffffffffff021916908373ffffffffffffffffffffffffffffffffffffffff160217905550600160025f3373ffffffffffffffffffffffffffffffffffffffff1673ffffffffffffffffffffffffffffffffffffffff1681526020019081526020015f205f6101000a81548160ff0219169083151502179055508b5f5f6101000a81548173ffffffffffffffffffffffffffffffffffffffff021916908373ffffffffffffffffffffffffffffffffffffffff1602179055506001600d5f8d73ffffffffffffffffffffffffffffffffffffffff1673ffffffffffffffffffffffffffffffffffffffff1681526020019081526020015f205f6101000a81548160ff0219169083151502179055506001600d5f8c73ffffffffffffffffffffffffffffffffffffffff1673ffffffffffffffffffffffffffffffffffffffff1681526020019081526020015f205f6101000a81548160ff02191690831515021790555088600a8190555087600b819055508660078190555085600f81905550831561109b575f855f0160086101000a81548160ff0219169083151502179055507fc7f505b2f371ae2175ee4913f4499e1f2633a7b5936321eed1cdaeb6115181d260016040516110929190613ae0565b60405180910390a15b505050505050505050505050565b6001151560025f3373ffffffffffffffffffffffffffffffffffffffff1673ffffffffffffffffffffffffffffffffffffffff1681526020019081526020015f205f9054906101000a900460ff16151514611139576040517f08c379a000000000000000000000000000000000000000000000000000000000815260040161113090613984565b60405180910390fd5b80600a819055507f9b1230ccd9cd68ebe973d3bd7cfbb7a9e00af4d5421dff745769b0c2453826f88160405161116f91906130a9565b60405180910390a150565b6001151560025f3373ffffffffffffffffffffffffffffffffffffffff1673ffffffffffffffffffffffffffffffffffffffff1681526020019081526020015f205f9054906101000a900460ff1615151461120a576040517f08c379a000000000000000000000000000000000000000000000000000000000815260040161120190613984565b60405180910390fd5b5f828290500361124f576040517f08c379a000000000000000000000000000000000000000000000000000000000815260040161124690613b43565b60405180910390fd5b5f5f90505b82829050811015611376575f83838381811061127357611272613b61565b5b9050602002016020810190611288919061312d565b905061129381610b6f565b6112d2576040517f08c379a00000000000000000000000000000000000000000000000000000000081526004016112c990613bd8565b60405180910390fd5b6001600c5f8373ffffffffffffffffffffffffffffffffffffffff1673ffffffffffffffffffffffffffffffffffffffff1681526020019081526020015f205f6101000a81548160ff0219169083151502179055508073ffffffffffffffffffffffffffffffffffffffff167fb7269578552456138d47dc37471d94886205143f138387446eff0148047965f660405160405180910390a250806001019050611254565b505050565b6001151560025f3373ffffffffffffffffffffffffffffffffffffffff1673ffffffffffffffffffffffffffffffffffffffff1681526020019081526020015f205f9054906101000a900460ff1615151461140b576040517f08c379a000000000000000000000000000000000000000000000000000000000815260040161140290613984565b60405180910390fd5b5f8282905003611450576040517f08c379a000000000000000000000000000000000000000000000000000000000815260040161144790613b43565b60405180910390fd5b5f5f90505b82829050811015611539575f83838381811061147457611473613b61565b5b9050602002016020810190611489919061312d565b90505f600e5f8373ffffffffffffffffffffffffffffffffffffffff1673ffffffffffffffffffffffffffffffffffffffff1681526020019081526020015f205f6101000a81548160ff0219169083151502179055508073ffffffffffffffffffffffffffffffffffffffff167fa41df410624cc22572f919ecd0d9c80c8722e6fabbd1055c0ae654256f0a9d065f60405161152591906131c7565b60405180910390a250806001019050611455565b505050565b6001151560025f3373ffffffffffffffffffffffffffffffffffffffff1673ffffffffffffffffffffffffffffffffffffffff1681526020019081526020015f205f9054906101000a900460ff161515146115ce576040517f08c379a00000000000000000000000000000000000000000000000000000000081526004016115c590613984565b60405180910390fd5b5f8282905003611613576040517f08c379a000000000000000000000000000000000000000000000000000000000815260040161160a90613b43565b60405180910390fd5b5f5f90505b828290508110156116fe575f83838381811061163757611636613b61565b5b905060200201602081019061164c919061312d565b90506001600e5f8373ffffffffffffffffffffffffffffffffffffffff1673ffffffffffffffffffffffffffffffffffffffff1681526020019081526020015f205f6101000a81548160ff0219169083151502179055508073ffffffffffffffffffffffffffffffffffffffff167fa41df410624cc22572f919ecd0d9c80c8722e6fabbd1055c0ae654256f0a9d0660016040516116ea91906131c7565b60405180910390a250806001019050611618565b505050565b5f5f9054906101000a900473ffffffffffffffffffffffffffffffffffffffff1681565b61172f612949565b61173882612a2f565b6117428282612ac1565b5050565b6005818051602081018201805184825260208301602085012081835280955050505050505f915054906101000a900460ff1681565b5f611784612bdf565b7f360894a13ba1a3210667c828492db98dca3e2076cc3735a920a3ca505d382bbc5f1b905090565b6001151560025f3373ffffffffffffffffffffffffffffffffffffffff1673ffffffffffffffffffffffffffffffffffffffff1681526020019081526020015f205f9054906101000a900460ff1615151461183c576040517f08c379a000000000000000000000000000000000000000000000000000000000815260040161183390613984565b60405180910390fd5b5f73ffffffffffffffffffffffffffffffffffffffff168273ffffffffffffffffffffffffffffffffffffffff16036118aa576040517f08c379a00000000000000000000000000000000000000000000000000000000081526004016118a1906138f6565b60405180910390fd5b8060095f8473ffffffffffffffffffffffffffffffffffffffff1673ffffffffffffffffffffffffffffffffffffffff1681526020019081526020015f205f6101000a81548160ff0219169083151502179055508173ffffffffffffffffffffffffffffffffffffffff167f58ddee8483dccfd93c151ea27fe0e76dcd291cee24151f05e3b305df81c81cae8260405161194491906131c7565b60405180910390a25050565b5f5f5f5f9054906101000a900473ffffffffffffffffffffffffffffffffffffffff1673ffffffffffffffffffffffffffffffffffffffff1663feaf968c6040518163ffffffff1660e01b815260040160a060405180830381865afa1580156119bb573d5f5f3e3d5ffd5b505050506040513d601f19601f820116820180604052508101906119df9190613c73565b5050509150508091505090565b600d602052805f5260405f205f915054906101000a900460ff1681565b600c602052805f5260405f205f915054906101000a900460ff1681565b600e602052805f5260405f205f915054906101000a900460ff1681565b6006602052805f5260405f205f915090505481565b60606040518060400160405280600581526020017f302e302e31000000000000000000000000000000000000000000000000000000815250905090565b6009602052805f5260405f205f915054906101000a900460ff1681565b600a5481565b60011515600c5f3373ffffffffffffffffffffffffffffffffffffffff1673ffffffffffffffffffffffffffffffffffffffff1681526020019081526020015f205f9054906101000a900460ff16151514611b48576040517f08c379a0000000000000000000000000000000000000000000000000000000008152600401611b3f90613d5a565b60405180910390fd5b5f73ffffffffffffffffffffffffffffffffffffffff168273ffffffffffffffffffffffffffffffffffffffff1603611bb6576040517f08c379a0000000000000000000000000000000000000000000000000000000008152600401611bad906138f6565b60405180910390fd5b8060065f8473ffffffffffffffffffffffffffffffffffffffff1673ffffffffffffffffffffffffffffffffffffffff1681526020019081526020015f205f828254611c029190613d78565b925050819055505050565b6040518060400160405280600581526020017f352e302e3000000000000000000000000000000000000000000000000000000081525081565b6001151560025f3373ffffffffffffffffffffffffffffffffffffffff1673ffffffffffffffffffffffffffffffffffffffff1681526020019081526020015f205f9054906101000a900460ff16151514611cd6576040517f08c379a0000000000000000000000000000000000000000000000000000000008152600401611ccd90613984565b60405180910390fd5b80600f8190555050565b6004602052805f5260405f205f915090508054611cfc90613dd8565b80601f0160208091040260200160405190810160405280929190818152602001828054611d2890613dd8565b8015611d735780601f10611d4a57610100808354040283529160200191611d73565b820191905f5260205f20905b815481529060010190602001808311611d5657829003601f168201915b505050505081565b60015f9054906101000a900473ffffffffffffffffffffffffffffffffffffffff1673ffffffffffffffffffffffffffffffffffffffff163373ffffffffffffffffffffffffffffffffffffffff1614611e0a576040517f08c379a0000000000000000000000000000000000000000000000000000000008152600401611e019061388e565b60405180910390fd5b5f73ffffffffffffffffffffffffffffffffffffffff168273ffffffffffffffffffffffffffffffffffffffff1603611e78576040517f08c379a0000000000000000000000000000000000000000000000000000000008152600401611e6f906138f6565b60405180910390fd5b8060025f8473ffffffffffffffffffffffffffffffffffffffff1673ffffffffffffffffffffffffffffffffffffffff1681526020019081526020015f205f6101000a81548160ff0219169083151502179055508173ffffffffffffffffffffffffffffffffffffffff167f235bc17e7930760029e9f4d860a2a8089976de5b381cf8380fc11c1d88a1113382604051611f1291906131c7565b60405180910390a25050565b6003818051602081018201805184825260208301602085012081835280955050505050505f915054906101000a900473ffffffffffffffffffffffffffffffffffffffff1681565b6008602052805f5260405f205f915054906101000a900460ff1681565b6001151560025f3373ffffffffffffffffffffffffffffffffffffffff1673ffffffffffffffffffffffffffffffffffffffff1681526020019081526020015f205f9054906101000a900460ff16151514612013576040517f08c379a000000000000000000000000000000000000000000000000000000000815260040161200a90613984565b60405180910390fd5b5f8282905003612058576040517f08c379a000000000000000000000000000000000000000000000000000000000815260040161204f90613b43565b60405180910390fd5b5f5f90505b828290508110156121bf575f83838381811061207c5761207b613b61565b5b9050602002016020810190612091919061312d565b9050600c5f8273ffffffffffffffffffffffffffffffffffffffff1673ffffffffffffffffffffffffffffffffffffffff1681526020019081526020015f205f9054906101000a900460ff1661211c576040517f08c379a000000000000000000000000000000000000000000000000000000000815260040161211390613e52565b60405180910390fd5b5f600c5f8373ffffffffffffffffffffffffffffffffffffffff1673ffffffffffffffffffffffffffffffffffffffff1681526020019081526020015f205f6101000a81548160ff0219169083151502179055508073ffffffffffffffffffffffffffffffffffffffff167ffb8b462bd4e3db069eb434596fcfb88044cfe688f7329d1c4bdfbb113257b1ac60405160405180910390a25080600101905061205d565b505050565b6001151560025f3373ffffffffffffffffffffffffffffffffffffffff1673ffffffffffffffffffffffffffffffffffffffff1681526020019081526020015f205f9054906101000a900460ff16151514612254576040517f08c379a000000000000000000000000000000000000000000000000000000000815260040161224b90613984565b60405180910390fd5b5f73ffffffffffffffffffffffffffffffffffffffff168273ffffffffffffffffffffffffffffffffffffffff16036122c2576040517f08c379a00000000000000000000000000000000000000000000000000000000081526004016122b9906138f6565b60405180910390fd5b8060085f8473ffffffffffffffffffffffffffffffffffffffff1673ffffffffffffffffffffffffffffffffffffffff1681526020019081526020015f205f6101000a81548160ff0219169083151502179055508173ffffffffffffffffffffffffffffffffffffffff167f8f7c4738b5c49406f13677340f47da6778e0fbc9f2ed993f0c1ef04f995d94038260405161235c91906131c7565b60405180910390a25050565b600681511015801561237c5750600a815111155b6123bb576040517f08c379a00000000000000000000000000000000000000000000000000000000081526004016123b290613eba565b60405180910390fd5b6123c481612c66565b612403576040517f08c379a00000000000000000000000000000000000000000000000000000000081526004016123fa90613f48565b60405180910390fd5b5f73ffffffffffffffffffffffffffffffffffffffff1660038260405161242a9190613fa0565b90815260200160405180910390205f9054906101000a900473ffffffffffffffffffffffffffffffffffffffff1673ffffffffffffffffffffffffffffffffffffffff16146124ae576040517f08c379a00000000000000000000000000000000000000000000000000000000081526004016124a590614000565b60405180910390fd5b5f60045f3373ffffffffffffffffffffffffffffffffffffffff1673ffffffffffffffffffffffffffffffffffffffff1681526020019081526020015f2080546124f790613dd8565b905014612539576040517f08c379a00000000000000000000000000000000000000000000000000000000081526004016125309061408e565b60405180910390fd5b5f151560085f3373ffffffffffffffffffffffffffffffffffffffff1673ffffffffffffffffffffffffffffffffffffffff1681526020019081526020015f205f9054906101000a900460ff161515146125c8576040517f08c379a00000000000000000000000000000000000000000000000000000000081526004016125bf906140f6565b60405180910390fd5b60095f3373ffffffffffffffffffffffffffffffffffffffff1673ffffffffffffffffffffffffffffffffffffffff1681526020019081526020015f205f9054906101000a900460ff16612651576040517f08c379a00000000000000000000000000000000000000000000000000000000081526004016126489061415e565b60405180910390fd5b336003826040516126629190613fa0565b90815260200160405180910390205f6101000a81548173ffffffffffffffffffffffffffffffffffffffff021916908373ffffffffffffffffffffffffffffffffffffffff1602179055508060045f3373ffffffffffffffffffffffffffffffffffffffff1673ffffffffffffffffffffffffffffffffffffffff1681526020019081526020015f2090816126f79190614313565b50600160058260405161270a9190613fa0565b90815260200160405180910390205f6101000a81548160ff0219169083151502179055503373ffffffffffffffffffffffffffffffffffffffff167f86d606287c9d4f3a350b0e6ea78a04d97425fff091713f4a433942578dc6f161826040516127749190613766565b60405180910390a250565b6001151560025f3373ffffffffffffffffffffffffffffffffffffffff1673ffffffffffffffffffffffffffffffffffffffff1681526020019081526020015f205f9054906101000a900460ff1615151461280f576040517f08c379a000000000000000000000000000000000000000000000000000000000815260040161280690613984565b60405180910390fd5b5f73ffffffffffffffffffffffffffffffffffffffff166003836040516128369190613fa0565b90815260200160405180910390205f9054906101000a900473ffffffffffffffffffffffffffffffffffffffff1673ffffffffffffffffffffffffffffffffffffffff16036128ba576040517f08c379a00000000000000000000000000000000000000000000000000000000081526004016128b19061442c565b60405180910390fd5b806005836040516128cb9190613fa0565b90815260200160405180910390205f6101000a81548160ff0219169083151502179055507f63bac90b9b3df6d7b737f7046d67a6731e531359f669a85f837fb9db826a9ddc828260405161292092919061444a565b60405180910390a15050565b5f5f612936612ce6565b90508091505090565b612947612d0f565b565b7f000000000000000000000000000000000000000000000000000000000000000073ffffffffffffffffffffffffffffffffffffffff163073ffffffffffffffffffffffffffffffffffffffff1614806129f657507f000000000000000000000000000000000000000000000000000000000000000073ffffffffffffffffffffffffffffffffffffffff166129dd612d4f565b73ffffffffffffffffffffffffffffffffffffffff1614155b15612a2d576040517fe07c8dba00000000000000000000000000000000000000000000000000000000815260040160405180910390fd5b565b60015f9054906101000a900473ffffffffffffffffffffffffffffffffffffffff1673ffffffffffffffffffffffffffffffffffffffff163373ffffffffffffffffffffffffffffffffffffffff1614612abe576040517f08c379a0000000000000000000000000000000000000000000000000000000008152600401612ab59061388e565b60405180910390fd5b50565b8173ffffffffffffffffffffffffffffffffffffffff166352d1902d6040518163ffffffff1660e01b8152600401602060405180830381865afa925050508015612b2957506040513d601f19601f82011682018060405250810190612b2691906144a2565b60015b612b6a57816040517f4c9c8ce3000000000000000000000000000000000000000000000000000000008152600401612b6191906131ef565b60405180910390fd5b7f360894a13ba1a3210667c828492db98dca3e2076cc3735a920a3ca505d382bbc5f1b8114612bd057806040517faa1d49a4000000000000000000000000000000000000000000000000000000008152600401612bc79190613654565b60405180910390fd5b612bda8383612da2565b505050565b7f000000000000000000000000000000000000000000000000000000000000000073ffffffffffffffffffffffffffffffffffffffff163073ffffffffffffffffffffffffffffffffffffffff1614612c64576040517fe07c8dba00000000000000000000000000000000000000000000000000000000815260040160405180910390fd5b565b5f5f8290505f5f90505b8151811015612cda57602060f81b828281518110612c9157612c90613b61565b5b602001015160f81c60f81b7effffffffffffffffffffffffffffffffffffffffffffffffffffffffffffff191603612ccd575f92505050612ce1565b8080600101915050612c70565b5060019150505b919050565b5f7ff0c57e16840df040f15088dc2f81fe391c3923bec73e23a9662efc9c229c6a005f1b905090565b612d17612e14565b612d4d576040517fd7e6bcf800000000000000000000000000000000000000000000000000000000815260040160405180910390fd5b565b5f612d7b7f360894a13ba1a3210667c828492db98dca3e2076cc3735a920a3ca505d382bbc5f1b612e32565b5f015f9054906101000a900473ffffffffffffffffffffffffffffffffffffffff16905090565b612dab82612e3b565b8173ffffffffffffffffffffffffffffffffffffffff167fbc7cd75a20ee27fd9adebab32041f755214dbc6bffa90cc0225b39da2e5c2d3b60405160405180910390a25f81511115612e0757612e018282612f04565b50612e10565b612e0f612f84565b5b5050565b5f612e1d61292c565b5f0160089054906101000a900460ff16905090565b5f819050919050565b5f8173ffffffffffffffffffffffffffffffffffffffff163b03612e9657806040517f4c9c8ce3000000000000000000000000000000000000000000000000000000008152600401612e8d91906131ef565b60405180910390fd5b80612ec27f360894a13ba1a3210667c828492db98dca3e2076cc3735a920a3ca505d382bbc5f1b612e32565b5f015f6101000a81548173ffffffffffffffffffffffffffffffffffffffff021916908373ffffffffffffffffffffffffffffffffffffffff16021790555050565b60605f5f8473ffffffffffffffffffffffffffffffffffffffff1684604051612f2d9190614511565b5f60405180830381855af49150503d805f8114612f65576040519150601f19603f3d011682016040523d82523d5f602084013e612f6a565b606091505b5091509150612f7a858383612fc0565b9250505092915050565b5f341115612fbe576040517fb398979f00000000000000000000000000000000000000000000000000000000815260040160405180910390fd5b565b606082612fd557612fd08261304d565b613045565b5f8251148015612ffb57505f8473ffffffffffffffffffffffffffffffffffffffff163b145b1561303d57836040517f9996b31500000000000000000000000000000000000000000000000000000000815260040161303491906131ef565b60405180910390fd5b819050613046565b5b9392505050565b5f8151111561305f5780518082602001fd5b6040517fd6bda27500000000000000000000000000000000000000000000000000000000815260040160405180910390fd5b5f819050919050565b6130a381613091565b82525050565b5f6020820190506130bc5f83018461309a565b92915050565b5f604051905090565b5f5ffd5b5f5ffd5b5f73ffffffffffffffffffffffffffffffffffffffff82169050919050565b5f6130fc826130d3565b9050919050565b61310c816130f2565b8114613116575f5ffd5b50565b5f8135905061312781613103565b92915050565b5f60208284031215613142576131416130cb565b5b5f61314f84828501613119565b91505092915050565b61316181613091565b811461316b575f5ffd5b50565b5f8135905061317c81613158565b92915050565b5f60208284031215613197576131966130cb565b5b5f6131a48482850161316e565b91505092915050565b5f8115159050919050565b6131c1816131ad565b82525050565b5f6020820190506131da5f8301846131b8565b92915050565b6131e9816130f2565b82525050565b5f6020820190506132025f8301846131e0565b92915050565b5f5f5f5f5f5f5f60e0888a031215613223576132226130cb565b5b5f6132308a828b01613119565b97505060206132418a828b01613119565b96505060406132528a828b01613119565b95505060606132638a828b0161316e565b94505060806132748a828b0161316e565b93505060a06132858a828b0161316e565b92505060c06132968a828b0161316e565b91505092959891949750929550565b5f5ffd5b5f5ffd5b5f5ffd5b5f5f83601f8401126132c6576132c56132a5565b5b8235905067ffffffffffffffff8111156132e3576132e26132a9565b5b6020830191508360208202830111156132ff576132fe6132ad565b5b9250929050565b5f5f6020838503121561331c5761331b6130cb565b5b5f83013567ffffffffffffffff811115613339576133386130cf565b5b613345858286016132b1565b92509250509250929050565b5f819050919050565b5f61337461336f61336a846130d3565b613351565b6130d3565b9050919050565b5f6133858261335a565b9050919050565b5f6133968261337b565b9050919050565b6133a68161338c565b82525050565b5f6020820190506133bf5f83018461339d565b92915050565b5f5ffd5b5f601f19601f8301169050919050565b7f4e487b71000000000000000000000000000000000000000000000000000000005f52604160045260245ffd5b61340f826133c9565b810181811067ffffffffffffffff8211171561342e5761342d6133d9565b5b80604052505050565b5f6134406130c2565b905061344c8282613406565b919050565b5f67ffffffffffffffff82111561346b5761346a6133d9565b5b613474826133c9565b9050602081019050919050565b828183375f83830152505050565b5f6134a161349c84613451565b613437565b9050828152602081018484840111156134bd576134bc6133c5565b5b6134c8848285613481565b509392505050565b5f82601f8301126134e4576134e36132a5565b5b81356134f484826020860161348f565b91505092915050565b5f5f60408385031215613513576135126130cb565b5b5f61352085828601613119565b925050602083013567ffffffffffffffff811115613541576135406130cf565b5b61354d858286016134d0565b9150509250929050565b5f67ffffffffffffffff821115613571576135706133d9565b5b61357a826133c9565b9050602081019050919050565b5f61359961359484613557565b613437565b9050828152602081018484840111156135b5576135b46133c5565b5b6135c0848285613481565b509392505050565b5f82601f8301126135dc576135db6132a5565b5b81356135ec848260208601613587565b91505092915050565b5f6020828403121561360a576136096130cb565b5b5f82013567ffffffffffffffff811115613627576136266130cf565b5b613633848285016135c8565b91505092915050565b5f819050919050565b61364e8161363c565b82525050565b5f6020820190506136675f830184613645565b92915050565b613676816131ad565b8114613680575f5ffd5b50565b5f813590506136918161366d565b92915050565b5f5f604083850312156136ad576136ac6130cb565b5b5f6136ba85828601613119565b92505060206136cb85828601613683565b9150509250929050565b5f819050919050565b6136e7816136d5565b82525050565b5f6020820190506137005f8301846136de565b92915050565b5f81519050919050565b5f82825260208201905092915050565b8281835e5f83830152505050565b5f61373882613706565b6137428185613710565b9350613752818560208601613720565b61375b816133c9565b840191505092915050565b5f6020820190508181035f83015261377e818461372e565b905092915050565b5f5f6040838503121561379c5761379b6130cb565b5b5f6137a985828601613119565b92505060206137ba8582860161316e565b9150509250929050565b5f5f604083850312156137da576137d96130cb565b5b5f83013567ffffffffffffffff8111156137f7576137f66130cf565b5b613803858286016135c8565b925050602061381485828601613683565b9150509250929050565b7f556e617574686f72697a656421204f6e6c792073757065722061646d696e20635f8201527f616e20706572666f726d2074686973206f7065726174696f6e00000000000000602082015250565b5f613878603983613710565b91506138838261381e565b604082019050919050565b5f6020820190508181035f8301526138a58161386c565b9050919050565b7f4e6f7420612076616c69642061646472657373000000000000000000000000005f82015250565b5f6138e0601383613710565b91506138eb826138ac565b602082019050919050565b5f6020820190508181035f83015261390d816138d4565b9050919050565b7f556e617574686f72697a656421204f6e6c792061646d696e2063616e207065725f8201527f666f726d2074686973206f7065726174696f6e00000000000000000000000000602082015250565b5f61396e603383613710565b915061397982613914565b604082019050919050565b5f6020820190508181035f83015261399b81613962565b9050919050565b7f496e76616c6964204554482070726963652066726f6d206f7261636c650000005f82015250565b5f6139d6601d83613710565b91506139e1826139a2565b602082019050919050565b5f6020820190508181035f830152613a03816139ca565b9050919050565b7f4e487b71000000000000000000000000000000000000000000000000000000005f52601260045260245ffd5b7f4e487b71000000000000000000000000000000000000000000000000000000005f52601160045260245ffd5b5f613a6e82613091565b9150613a7983613091565b925082613a8957613a88613a0a565b5b828204905092915050565b5f819050919050565b5f67ffffffffffffffff82169050919050565b5f613aca613ac5613ac084613a94565b613351565b613a9d565b9050919050565b613ada81613ab0565b82525050565b5f602082019050613af35f830184613ad1565b92915050565b7f496e76616c6964206c656e6774680000000000000000000000000000000000005f82015250565b5f613b2d600e83613710565b9150613b3882613af9565b602082019050919050565b5f6020820190508181035f830152613b5a81613b21565b9050919050565b7f4e487b71000000000000000000000000000000000000000000000000000000005f52603260045260245ffd5b7f4e6f74206120636f6e74726163742061646472657373000000000000000000005f82015250565b5f613bc2601683613710565b9150613bcd82613b8e565b602082019050919050565b5f6020820190508181035f830152613bef81613bb6565b9050919050565b5f69ffffffffffffffffffff82169050919050565b613c1481613bf6565b8114613c1e575f5ffd5b50565b5f81519050613c2f81613c0b565b92915050565b613c3e816136d5565b8114613c48575f5ffd5b50565b5f81519050613c5981613c35565b92915050565b5f81519050613c6d81613158565b92915050565b5f5f5f5f5f60a08688031215613c8c57613c8b6130cb565b5b5f613c9988828901613c21565b9550506020613caa88828901613c4b565b9450506040613cbb88828901613c5f565b9350506060613ccc88828901613c5f565b9250506080613cdd88828901613c21565b9150509295509295909350565b7f4f6e6c79207469657220636f6e74726163742063616e20706572666f726d20745f8201527f686973206f7065726174696f6e00000000000000000000000000000000000000602082015250565b5f613d44602d83613710565b9150613d4f82613cea565b604082019050919050565b5f6020820190508181035f830152613d7181613d38565b9050919050565b5f613d8282613091565b9150613d8d83613091565b9250828201905080821115613da557613da4613a37565b5b92915050565b7f4e487b71000000000000000000000000000000000000000000000000000000005f52602260045260245ffd5b5f6002820490506001821680613def57607f821691505b602082108103613e0257613e01613dab565b5b50919050565b7f436f6e7472616374206e6f742077686974656c697374656400000000000000005f82015250565b5f613e3c601883613710565b9150613e4782613e08565b602082019050919050565b5f6020820190508181035f830152613e6981613e30565b9050919050565b7f496e76616c696420726566657272616c20636f646500000000000000000000005f82015250565b5f613ea4601583613710565b9150613eaf82613e70565b602082019050919050565b5f6020820190508181035f830152613ed181613e98565b9050919050565b7f526566657272616c436f64652063616e6e6f7420636f6e7461696e20737061635f8201527f6573000000000000000000000000000000000000000000000000000000000000602082015250565b5f613f32602283613710565b9150613f3d82613ed8565b604082019050919050565b5f6020820190508181035f830152613f5f81613f26565b9050919050565b5f81905092915050565b5f613f7a82613706565b613f848185613f66565b9350613f94818560208601613720565b80840191505092915050565b5f613fab8284613f70565b915081905092915050565b7f526566657272616c20636f646520616c726561647920657869737400000000005f82015250565b5f613fea601b83613710565b9150613ff582613fb6565b602082019050919050565b5f6020820190508181035f83015261401781613fde565b9050919050565b7f5573657220616c72656164792067656e65726174656420726566657272616c205f8201527f636f646500000000000000000000000000000000000000000000000000000000602082015250565b5f614078602483613710565b91506140838261401e565b604082019050919050565b5f6020820190508181035f8301526140a58161406c565b9050919050565b7f426c61636b6c69737465642055736572000000000000000000000000000000005f82015250565b5f6140e0601083613710565b91506140eb826140ac565b602082019050919050565b5f6020820190508181035f83015261410d816140d4565b9050919050565b7f55736572206b7963206973206e6f742076616c696400000000000000000000005f82015250565b5f614148601583613710565b915061415382614114565b602082019050919050565b5f6020820190508181035f8301526141758161413c565b9050919050565b5f819050815f5260205f209050919050565b5f6020601f8301049050919050565b5f82821b905092915050565b5f600883026141d87fffffffffffffffffffffffffffffffffffffffffffffffffffffffffffffffff8261419d565b6141e2868361419d565b95508019841693508086168417925050509392505050565b5f61421461420f61420a84613091565b613351565b613091565b9050919050565b5f819050919050565b61422d836141fa565b6142416142398261421b565b8484546141a9565b825550505050565b5f5f905090565b614258614249565b614263818484614224565b505050565b5b818110156142865761427b5f82614250565b600181019050614269565b5050565b601f8211156142cb5761429c8161417c565b6142a58461418e565b810160208510156142b4578190505b6142c86142c08561418e565b830182614268565b50505b505050565b5f82821c905092915050565b5f6142eb5f19846008026142d0565b1980831691505092915050565b5f61430383836142dc565b9150826002028217905092915050565b61431c82613706565b67ffffffffffffffff811115614335576143346133d9565b5b61433f8254613dd8565b61434a82828561428a565b5f60209050601f83116001811461437b575f8415614369578287015190505b61437385826142f8565b8655506143da565b601f1984166143898661417c565b5f5b828110156143b05784890151825560018201915060208501945060208101905061438b565b868310156143cd57848901516143c9601f8916826142dc565b8355505b6001600288020188555050505b505050505050565b7f526566657272616c20636f6465206e6f742065786973740000000000000000005f82015250565b5f614416601783613710565b9150614421826143e2565b602082019050919050565b5f6020820190508181035f8301526144438161440a565b9050919050565b5f6040820190508181035f830152614462818561372e565b905061447160208301846131b8565b9392505050565b6144818161363c565b811461448b575f5ffd5b50565b5f8151905061449c81614478565b92915050565b5f602082840312156144b7576144b66130cb565b5b5f6144c48482850161448e565b91505092915050565b5f81519050919050565b5f81905092915050565b5f6144eb826144cd565b6144f581856144d7565b9350614505818560208601613720565b80840191505092915050565b5f61451c82846144e1565b91508190509291505056fea26469706673582212204583f04be00e10b642706dcb3912f1b47be8e9159c5d448a311e7015305105cf64736f6c634300081c0033","linkReferences":{}},"methodIdentifiers":{"UPGRADE_INTERFACE_VERSION()":"ad3cb1cc","addInternalAccounts(address[])":"409c49d8","addressToReferralCode(address)":"b868e7a1","ethUsdPriceFeed()":"42f6fb29","generateReferralCode(string)":"f84d7802","getContractVersion()":"8aa10435","getLatestEthPriceInUsd()":"5dbb2c3c","getUsdPriceInEth()":"1c8c8f04","initialize(address,address,address,uint256,uint256,uint256,uint256)":"2b4656c8","internalAccounts(address)":"808d180b","internalWalletMaxHoldings()":"20ce3e27","isActiveReferral(string)":"52328b6f","isAdmin(address)":"24d7806c","isBlackListed(address)":"e47d6060","isContract(address)":"16279055","isKYC(address)":"9944f518","perUserCap()":"053f424d","proxiableUUID()":"52d1902d","referralCodeToAddress(string)":"d6f92372","referredCommissionPercentage()":"9e7de2b1","referrerCommissionPercentage()":"1d18f00b","removeInternalAccounts(address[])":"3ffa28ec","removeWhitelistedContract(address[])":"e789e695","superAdmin()":"29575f6a","supportedTokens(address)":"68c4ac26","transferSuperAdmin(address)":"0c6dd9fd","updateAdminRole(address,bool)":"c2537372","updateBlackListUser(address,bool)":"ea54ff0e","updateHoldings(address,uint256)":"a720b8af","updateInternalWalletMaxHoldings(uint256)":"adff9270","updateKYCStatus(address,bool)":"53df9d76","updateReferredCommissionPercentage(uint256)":"2fe716f3","updateReferrerCommisionPercentage(uint256)":"11aa69c3","updateUserReferralActiveness(string,bool)":"fd2bd06a","upgradeToAndCall(address,bytes)":"4f1ef286","userHoldings(address)":"84fc6de3","whitelistContract(address[])":"3f463129","whitelistedTierContracts(address)":"7842a46b"},"id":0}